:1000000014EF00F0FFFFFFFFF4EF34F0FFFFFFFFFE
:10001000FFFFFFFFFFFFFFFFD8CF5FFFE0CF0FF035
:10002000FACF5EFFF5EF34F000EE61F09F0EEE6A5E
:10003000E806FDE100EE0FF0060EEE6AE806FDE1CF
:100040000FEE0CF0370EEE6AE80602E023EF00F048
:100050008FEF35F0FFFFFFFFFFFFFFFFFFFFFFFF09
:10006000FFFFFFFFFFFFFFFFFFFFFFFFFFFFFFFFA0
:10007000FFFFFFFFFFFFFFFFFFFFFFFFFFFFFFFF90
:10008000FFFFFFFFFFFFFFFFFFFFFFFFFFFFFFFF80
:10009000FFFFFFFFFFFFFFFFFFFFFFFFFFFFFFFF70
:101000005361766500574C2C25752C49502C25755D
:101010002C43502C25752C4C532C25752C00436CDF
:101020002C25752C4144432C25752C48742C257592
:101030002C4144432C25752C50574D2C25752C00E4
:1010400046472C25752C464D2C25752C4B502C25B0
:10105000752C484C2C25752000222324261D1E1F8C
:1010600020B7C1CACE0A0D436F6C64204869676817
:10107000202533752C20436F6C64204C6F7720251E
:101080003375202C20486561746572202533750006
:10109000434520253031750044465420001030B1BE
:1010A00070B7B30072494B4A68454746642C2D2EF1
:1010B0002F28292A2B2625276C68636229612D2574
:1010C000434620005345202530317500486F742079
:1010D00074616E6B206C6576656C2073656E736FE2
:1010E0007220006261642E0D004F4B2E0D000A0D20
:1010F00057445420253035752C20424F522025303E
:1011000035752C20504F5220253035752C20434FFB
:101110004F4B494520253033750A0D000100101151
:101120009819BC210100EE02E803DC050A0A0D56FD
:10113000657273696F6E20342E31330A0D000A0D0B
:10114000253032753A253032753A253032752C20EB
:1011500000486F742054616E6B2043616C69627249
:101160006174696F6E204F66667365743A202569F5
:101170002C20004963652042616E6B2043616C69DD
:1011800062726174696F6E204F66667365743A208F
:1011900025692C20004641494C45442C206F666649
:1011A00073657420746F6F206C617267652E0D001B
:1011B0004E65772063616C6962726174696F6E203D
:1011C000736176656420696E20454550524F4D2EFF
:1011D0000D005041535345442E0D000A0D43616CE0
:1011E0006962726174696E6720546865726D6973B3
:1011F000746F7220696E707574732E2E2E0D0045FB
:1012000078636565646564206D6178696D756D20CE
:1012100064697370656E7365206C696D69747300C1
:10122000486F742074616E6B2066696C6C20746901
:101230006D656F7574206572726F72004963652009
:1012400062616E6B2066696C6C2074696D656F7588
:1012500074206572726F7200486F742074616E6BD7
:10126000206F7665722074656D7065726174757239
:1012700065206F7220746865726D6973746F722077
:101280006572726F72004963652062616E6B2074D3
:101290006865726D6973746F72206572726F720027
:1012A000486F742074616E6B2074656D7065726137
:1012B000747572652072697365206572726F720051
:1012C0004963652062616E6B206F7665722074657C
:1012D0006D7065726174757265206572726F7200EF
:1012E0004C65616B206465746563746564002530CA
:1012F00032753A0030303A004E6F206572726F726C
:101300007320696E206C6F672E002534752C2000C9
:10131000253032752C200030302C20002020203049
:101320002C20000A0D4552524F52204C4F47204866
:101330004953544F52590D00010000000A000000AB
:1013400064000000E803000010270000A0860100F0
:1013500040420F008096980000E1F50500CA9A3BD4
:1013600000803FCDCC3DD7233C12833AB7D138C65D
:101370002737388635C0D633CC2B32708930E7DB3F
:101380002EE53C1E000000000000000000000000F0
:10139000000000000000000000000000000000014C
:1013A000000000100000000001000000100000001C
:1013B000000100000010000000000100000010010A
:1013C00000000008000000400000000002000000D3
:1013D0001000000080000000000400000020000059
:1013E0000000010000000800000040000000003084
:1013F00031323334353637383961626364656600BB
:10140000303132333435363738394142434445463A
:1014100000286E756C6C290000803F00204100C8D8
:1014200042007A44401C4650C34724744997184BE5
:10143000BCBE4C6B6E4E03155079AD60F349710024
:10144000803FCDCC3DD7233C12833AB7D138C62755
:1014500037388635C0D633CC2B32708930E7DB2E57
:10146000E53C1E42A20D026A016A006AE950EA10D8
:1014700006E002C0EDFF01C0EDFF00C0EFFF000C71
:10148000D96E6D0ED96477D0006A016A3F0E026E84
:1014900000C0F5F001C0F6F002C0F7F00A0E016ED0
:1014A000D95077EC39F00050030DF3503F0FF66E32
:1014B000F450F76E140EF7220900F5CF00F0090082
:1014C000F5CF01F00900F5CF02F000C0F8F001C03F
:1014D000F9F002C0FAF0640E016ED95077EC39F0E1
:1014E0000A0E016E005077EC39F0030DF3503F0FF8
:1014F000F66EF450F76E140EF7221B0EF626000E51
:10150000F7220900F5CF00F00900F5CF01F009003E
:10151000F5CF02F000C0FBF001C0FCF002C0FDF00E
:10152000640E016ED95077EC39F0030DF3503F0F84
:10153000F66EF450F76E140EF722360EF626000EF5
:10154000F7220900F5CF00F00900F5CF01F00900FE
:10155000F5CF02F0FBC003F0FCC004F0FDC005F0C5
:10156000EFEC37F0F8C003F0F9C004F0FAC005F072
:10157000EFEC37F069D00A0ED9644AD0006A016AEC
:101580003F0E026E00C0F5F001C0F6F002C0F7F0A9
:101590000A0E016ED95077EC39F00050030DF3506C
:1015A0003F0FF66EF450F76E140EF7220900F5CFD8
:1015B00000F00900F5CF01F00900F5CF02F000C0FE
:1015C000F8F001C0F9F002C0FAF00A0E016ED9502D
:1015D00077EC39F0030DF3503F0FF66EF450F76ED1
:1015E000140EF7221B0EF626000EF7220900F5CF87
:1015F00000F00900F5CF01F00900F5CF02F0F8C0C6
:1016000003F0F9C004F0FAC005F0EFEC37F01CD09D
:10161000006A016A3F0E026E00C0F5F001C0F6F0EC
:1016200002C0F7F0D950030DF3503F0FF66EF4509F
:10163000F76E140EF7220900F5CF00F00900F5CF80
:1016400001F00900F5CF02F0F5C003F0F6C004F098
:10165000F7C005F0EFEF37F0D96ED9AEE3D0D96C13
:10166000D950800A120F01E287D00A0E026E036A77
:10167000D9CF00F0016A00BE010695EC3AF0030EE6
:10168000026E036ABAEC3AF004503F0FF66E055052
:10169000F76E140EF7220900F5CF00F00900F5CF20
:1016A00001F00900F5CF02F000C0F5F001C0F6F03E
:1016B00002C0F7F0640E026E036AD9CF00F0016A2F
:1016C00000BE010695EC3AF00A0E026E036A95EC34
:1016D0003AF004C000F005C001F0030E026E036A88
:1016E000BAEC3AF004503F0FF66E0550F76E140E48
:1016F000F7221B0EF626000EF7220900F5CF00F0A8
:101700000900F5CF01F00900F5CF02F000C0F8F0B4
:1017100001C0F9F002C0FAF0640E026E036AD9CF7C
:1017200000F0016A00BE010695EC3AF004C000F03A
:1017300005C001F0030E026E036ABAEC3AF00450E1
:101740003F0FF66E0550F76E140EF722360EF62692
:10175000000EF7220900F5CF00F00900F5CF01F0E7
:101760000900F5CF02F0F8C003F0F9C004F0FAC0A8
:1017700005F0EFEC37F032D1D950800A750F3FE316
:101780000A0E026E036AD9CF00F0016A00BE01069C
:1017900095EC3AF0030E026E036ABAEC3AF004508C
:1017A0003F0FF66E0550F76E140EF7220900F5CFC5
:1017B00000F00900F5CF01F00900F5CF02F000C0FC
:1017C000F5F001C0F6F002C0F7F00A0E026E036AEF
:1017D000D9CF00F0016A00BE010695EC3AF004C0D2
:1017E00000F005C001F0030E026E036ABAEC3AF095
:1017F00004503F0FF66E0550F76E140EE1D0D9502D
:10180000030DF3503F0FF66EF450F76E140EF722EF
:101810000900F5CF00F00900F5CF01F00900F5CF80
:1018200002F01200D950800A120F01E287D00A0E8E
:10183000026E036AD9CF00F0016A00BE010695EC82
:101840003AF0030E026E036ABAEC3AF00450180F35
:10185000F66E0550F76E140EF7220900F5CF00F072
:101860000900F5CF01F00900F5CF02F000C0F5F056
:1018700001C0F6F002C0F7F0640E026E036AD9CF21
:1018800000F0016A00BE010695EC3AF00A0E026E05
:10189000036A95EC3AF004C000F005C001F0030EB5
:1018A000026E036ABAEC3AF00450180FF66E055057
:1018B000F76E140EF7221B0EF626000EF722090013
:1018C000F5CF00F00900F5CF01F00900F5CF02F0E7
:1018D00000C0F8F001C0F9F002C0FAF0640E026E28
:1018E000036AD9CF00F0016A00BE010695EC3AF018
:1018F00004C000F005C001F0030E026E036ABAECEA
:101900003AF00450180FF66E0550F76E140EF722D9
:10191000360EF626000EF7220900F5CF00F009007A
:10192000F5CF01F00900F5CF02F0F8C003F0F9C0DF
:1019300004F0FAC005F0EFEC37F050D0D950800A2F
:10194000750F54E30A0E026E036AD9CF00F0016AE4
:1019500000BE010695EC3AF0030E026E036ABAEC83
:101960003AF00450180FF66E0550F76E140EF72279
:101970000900F5CF00F00900F5CF01F00900F5CF1F
:1019800002F000C0F5F001C0F6F002C0F7F00A0E58
:10199000026E036AD9CF00F0016A00BE010695EC21
:1019A0003AF004C000F005C001F0030E026E036AB5
:1019B000BAEC3AF00450180FF66E0550F76E140E9C
:1019C000F7221B0EF626000EF7220900F5CF00F0D5
:1019D0000900F5CF01F00900F5CF02F0F5C003F0E2
:1019E000F6C004F0F7C005F0EFEF37F0D950030D63
:1019F000F350180FF66EF450F76E140EF72209002C
:101A0000F5CF00F00900F5CF01F00900F5CF02F0A5
:101A10001200D6000001E56BE66BF36AF46AD6C0EB
:101A2000D9FFD7C0DAFF0001D8C0F6FFD9C0F7FF51
:101A3000D84BD92B0F0EF76403D00800F55005D012
:101A4000F6CFE9FFF7CFEAFFEF50DC6FDC5102E1A0
:101A5000D1EF20F00001DC51250A2FE0DE50DD102F
:101A600010E0DFCF00F0DE2ADFCF01F0000EDD2234
:101A700000C0E9FF01C0EAFFDCC0EFFFE54BE62B49
:101A8000D2D700EE02F0D950E926DA50EA22EECFA2
:101A9000EEF0EDCFEFF0D9CFD6F0DACFD7F00001EE
:101AA000DC51EEC0F6FFEFC0F7FF05EC3BF0D6C00F
:101AB000D9FFD7C0DAFF0001E1D70001E16BE26B8B
:101AC000E36BE46B10D00001E3870BD00001E381EE
:101AD00008D00001E38305D00001E48702D00001B3
:101AE000E385D84BD92BD8C0F6FFD9C0F7FF0F0E2E
:101AF000F76403D00800F55005D0F6CFE9FFF7CF23
:101B0000EAFFEF50200AE2E0030AE6E0080AE1E01B
:101B1000060AD9E01D0AE3E00001E3B3E391D9CF5F
:101B2000D6F0DACFD7F0E3B7E395D8C0F6FFD9C047
:101B3000F7FF0F0EF76403D00800F55005D0F6CF7D
:101B4000E9FFF7CFEAFFEF50D6EC3AF03CE30001B3
:101B5000E16BE26B0A0E026E036AE1C000F0E2C0C4
:101B600001F0BAEC3AF0D8C0F6FFD9C0F7FF0F0E7B
:101B7000F76403D00800F55005D0F6CFE9FFF7CFA2
:101B8000EAFFEF500424006E000E0520016ED00E17
:101B900000240001E16FFF0E0120E26FD84BD92B2A
:101BA000D8C0F6FFD9C0F7FF0F0EF76403D00800C6
:101BB000F55005D0F6CFE9FFF7CFEAFFEF50D6ECAE
:101BC0003AF029E3C7D7D8C0F6FFD9C0F7FF0F0E08
:101BD000F76403D00800F55005D0F6CFE9FFF7CF42
:101BE000EAFFEF502A0A17E1DAC0E9FFDBC0EAFF9B
:101BF000EFCF00F0020EEE26EFCF01F0000EED2247
:101C000000C0E9FF01C0EAFFEECFE1F0EDCFE2F066
:101C10000001D84BD92BD8C0F6FFD9C0F7FF0F0E63
:101C2000F76403D00800F55005D0F6CFE9FFF7CFF1
:101C3000EAFFEF502E0A000167E1D84BD92BD8C03C
:101C4000F6FFD9C0F7FF0F0EF76403D00800F55078
:101C500005D0F6CFE9FFF7CFEAFFEF502A0A17E1E8
:101C6000DAC0E9FFDBC0EAFFEFCF00F0020EEE269C
:101C7000EFCF01F0000EED2200C0E9FF01C0EAFF46
:101C8000EECFDFF0EDCFE0F0D84BD92BA0D10001A3
:101C9000DF6BE06BD8C0F6FFD9C0F7FF0F0EF7641B
:101CA00003D00800F55005D0F6CFE9FFF7CFEAFFE3
:101CB000EF50D6EC3AF001E28AD10A0E026E036AC6
:101CC000DFC000F0E0C001F0BAEC3AF0D8C0F6FF97
:101CD000D9C0F7FF0F0EF76403D00800F55005D008
:101CE000F6CFE9FFF7CFEAFFEF500424006E000EB5
:101CF0000520016ED00E00240001DF6FFF0E0120D1
:101D0000E06FD84BD92BC6D7DF6BE06BE4895FD18E
:101D1000D1EF20F00001E3895AD10001E4859DD183
:101D20000001E38B0001E48198D10001E38B000105
:101D3000E48393D10001E38D90D10001E38B000196
:101D4000E38F8BD1DAC0E9FFDBC0EAFFEFCF00F011
:101D5000020EEE26EFCF01F0000EED2200C0E9FFEB
:101D600001C0EAFFEECFEAF0EDCFEBF000EEEAF0D3
:101D7000EE50ED10000104E1110EEA6F140EEB6F4E
:101D8000EC6BED6B00EEEAF0EECF00F0EDCF01F082
:101D90000001EC510026ED51012200C0F6FF01C008
:101DA000F7FF0F0EF76403D00800F55005D0F6CF0B
:101DB000E9FFF7CFEAFFEF500009000104E0EC4B28
:101DC000ED2BE0D70001E051DF110AE0ED51E05DBD
:101DD00002E1EC51DF5D04E2DFC0ECF0E0C0EDF0C9
:101DE0000001E251ED5D02E1E151EC5D05E2EC51F3
:101DF000E15FED51E25B03D00001E16BE26B0001BA
:101E0000E3A72AD07CD0D6C0D9FFD7C0DAFFDE50F6
:101E1000DD100EE0DFCF00F0DE2ADFCF01F0000E94
:101E2000DD2200C0E9FF01C0EAFF200EEF6E11D0F5
:101E300000EE02F0D950E926DA50EA22EECFEEF0B9
:101E4000EDCFEFF0200EEEC0F6FFEFC0F7FF05EC90
:101E50003BF00001E54BE62B0001E151006EE25141
:101E6000016EE107000EE25B0150001048E0CBD7A5
:101E7000DE50DD101FE00001EAC0F6FFEBC0F7FF07
:101E8000EA4BEB2BDFCF00F0DE2ADFCF01F0000EB4
:101E9000DD2200C0E9FF01C0EAFF0F0EF76403D0A6
:101EA0000800F55005D0F6CFE1FFF7CFE2FFE7508D
:101EB000EF6E23D000EE02F0D950E926DA50EA2284
:101EC000EECFEEF0EDCFEFF00001EAC0F6FFEBC091
:101ED000F7FFEA4BEB2B0F0EF76403D00800F55029
:101EE00005D0F6CFE9FFF7CFEAFFEF50EEC0F6FFDF
:101EF000EFC0F7FF05EC3BF00001E54BE62BD6C049
:101F0000D9FFD7C0DAFF0001EC51006EED51016E30
:101F1000EC07000EED5B01500010AAE1E3B726D0FC
:101F200082D5DE50DD100EE0DFCF00F0DE2ADFCFFD
:101F300001F0000EDD2200C0E9FF01C0EAFF200E23
:101F4000EF6E11D000EE02F0D950E926DA50EA2205
:101F5000EECFEEF0EDCFEFF0200EEEC0F6FFEFC0CB
:101F6000F7FF05EC3BF00001E54BE62BD6C0D9FFAF
:101F7000D7C0DAFF0001E151006EE251016EE107C6
:101F8000000EE25B0150001001E14DD5CAD7DAC066
:101F9000E9FFDBC0EAFFEFCF00F0020EEE26EFCF45
:101FA00001F0000EED2200C0E9FF01C0EAFFEF5092
:101FB0000001DC6F0001DC0EEA6F000EEB6F010E1A
:101FC000EC6FED6BFFD6C00E0001E31346D0D6C018
:101FD000D9FFD7C0DAFF0001D8C0F6FFD9C0F7FF9C
:101FE000D84BD92B0F0EF76403D00800F55005D05D
:101FF000F6CFE9FFF7CFEAFFEF50DC6FDC5101E1EC
:1020000087D6450A01E18CD6020A01E18ED61F0A65
:1020100001E193D63B0ABBE0070A01E18DD6010A34
:1020200001E180D6030A01E178D6010A01E17FD6F9
:102030000E0A01E181D6050A01E16CD6030A01E12D
:1020400079D61F0A01E179D6030A01E17BD6060A97
:10205000BAE00D0A01E173D6ADD70001006A070EA0
:10206000E415016E0150001002E1DBEF1BF0E4A962
:1020700003D0060EDF6FE06BDAC0E9FFDBC0EAFFDA
:10208000EFCF00F0030EEE26EFCF01F0000EED22B1
:1020900000C0E9FF01C0EAFFEECFE7F0EECFE8F0C5
:1020A000EDCFE9F0036A046A056AE7C000F0E8C012
:1020B00001F0E9C002F012EC3AF011E2E7C000F0E2
:1020C000E8C001F0E9C002F044EC3BF000C0E7F0EA
:1020D00001C0E8F002C0E9F0030E0001E3130001C3
:1020E000DD6BDE6BE70EE96E000EEA6EEE50EE1071
:1020F000EE1071E0820EF66EF7680F0EE7C000F08A
:10210000E8C001F0E9C002F0EAC003F0F0EC3AF0F8
:102110000050F624DD6F000EF720DE6FDD07D8A03B
:10212000DE07030E026E036ADDC000F0DEC001F0C0
:10213000BAEC3AF004C0DDF005C0DEF00A0E026E23
:10214000036ADDC000F0DEC001F095EC3AF004C097
:10215000DDF005C0DEF0DEAF03D0DD07D8A0DE077E
:102160000001DD5100082CEC0BF0E7C003F0E8C0E3
:1021700004F0E9C005F0EFEC37F000C0EAF001C070
:10218000EBF002C0ECF0D6C0D9FFD7C0DAFF036A8B
:10219000800E046E3F0E056EEAC000F0EBC001F049
:1021A000ECC002F012EC3AF005E20001DD07D8A025
:1021B000DE0711D0036A200E046E410E056EEAC0E0
:1021C00000F0EBC001F0ECC002F012EC3AF00001BC
:1021D00003E3DD4BDE2B0001DE51800A800F010E90
:1021E000D8B4DD5D02E2010E02D00001DD51DC6FEA
:1021F0000001E4B116D0E4A3A1EF16F0DE51800A8D
:10220000810FFC0ED8B4DD5D0CE3DE51800A006E58
:10221000E051800A005C02E1DF51DD5D02E2A1EFE6
:1022200016F00001E051DF11D8A4E4A303D0DF07CA
:10223000D8A0E0070001000EE05D090ED8B4DF5D14
:1022400002E3080E02D00001DF51DC6FE70EE96EF9
:10225000000EEA6EEE50EE10EE1001E1CAD0000161
:10226000DC51DD5D2CEC0BF000C003F001C004F08C
:1022700002C005F0E70EE96E000EEA6E35EC3BF0A9
:10228000D6C0D9FFD7C0DAFFE7C000F0E8C001F040
:10229000E9C002F0CDEC39F085EC3AF000C0F1F085
:1022A00001C0F2F002C0F3F0E7C000F0E8C001F0B6
:1022B000E9C002F0F1C003F0F2C004F0F3C005F091
:1022C0001AEC39F0036A046A3F0E056E12EC3AF01C
:1022D0000AE3036A046A3F0E056EE70EE96E000E1C
:1022E000EA6E1BEC3BF0E7C000F0E8C001F0E9C08B
:1022F00002F0CDEC39F000C0F1F001C0F2F002C004
:10230000F3F003C0F4F0DCC000F0016A00BE010687
:10231000D89000360136D890003601360050380F7C
:10232000F66E0150F76E130EF722040EF626000E1D
:10233000F7220900F5CF00F00900F5CF01F0090000
:10234000F5CF02F00900F5CF03F000010350F45D72
:1023500008E10250F35D05E10150F25D02E1005039
:10236000F15D0FE3CD0E036ECC0E046E3D0E056ED7
:10237000E70EE96E000EEA6E2DEC3BF0DD4BDE2B36
:1023800038D0E7C000F0E8C001F0E9C002F0CDECC1
:1023900039F00001DC51040DF350380FF66EF450A3
:1023A000F76E130EF7220900F5CF04F00900F5CF00
:1023B00005F00900F5CF06F00900F5CF07F007504A
:1023C000035C08E10650025C05E10550015C02E196
:1023D0000450005C0EE2036A200E046E410E056E8E
:1023E000E70EE96E000EEA6E2DEC3BF0DD07D8A09B
:1023F000DE070001E4B3E4B767D0E051800A800F44
:102400000B0ED8B4DF5D03E30A0EDF6FE06BE7C0AD
:1024100000F0E8C001F0E9C002F0CDEC39F000C0F6
:10242000EAF001C0EBF002C0ECF003C0EDF00FD019
:102430000001DF07D8A0E0070A0E046E056A066AED
:10244000076AEA0EE96E000EEA6E0FEC3BF000013F
:10245000ED51EA11EB11EC1114E00A0E046E056A5D
:10246000066A076AEAC000F0EBC001F0ECC002F0B7
:10247000EDC003F09CEC36F0075004100510061078
:10248000D7E0DCC000F0016A00BE01060001E051A7
:10249000800A026E0150800A025C02E10050DF5D9A
:1024A00013E2DF51DC5D2CEC0BF000C003F001C047
:1024B00004F002C005F0E70EE96E000EEA6E35EC9E
:1024C0003BF00001DF51DC6F050EDFC000F0E0C023
:1024D00001F00026000E012200010050E15F0150D2
:1024E000E25BD6C0D9FFD7C0DAFFE051DF1102E1CD
:1024F000E4A704D00001E107D8A0E207030EE3C07F
:1025000000F0E4C001F00016016A0150001004E080
:102510000001E107D8A0E2070001E3A58CD0E3A306
:102520002FD0DE50DD1014E0DFCF00F0DE2ADFCF49
:1025300001F0000EDD2200C0E9FF01C0EAFFE3B1B7
:1025400002D02B0E01D02D0EEF6EE54BE62B69D09D
:1025500000EE02F0D950E926DA50EA22EECFEEF092
:10256000EDCFEFF00001E3B102D02B0E01D02D0E24
:10257000EEC0F6FFEFC0F7FF05EC3BF00001E5D73A
:102580000001E3A14ED0DE50DD100DE0DFCF00F002
:10259000DE2ADFCF01F0000EDD2200C0E9FF01C01E
:1025A000EAFF200ED1D700EE02F0D950E926DA502A
:1025B000EA22EECFEEF0EDCFEFF0200EEEC0F6FF08
:1025C000EFC0F7FF05EC3BF0D9D7D6C0D9FFD7C095
:1025D000DAFFDE50DD100EE0DFCF00F0DE2ADFCFC5
:1025E00001F0000EDD2200C0E9FF01C0EAFF300E5D
:1025F000EF6E11D000EE02F0D950E926DA50EA224F
:10260000EECFEEF0EDCFEFF0300EEEC0F6FFEFC004
:10261000F7FF05EC3BF00001E54BE62BE107D8A006
:10262000E2070001E251800A800F010ED8B4E15D9B
:1026300001E28FD0CAD70001E3A729D034D0DE5001
:10264000DD100EE0DFCF00F0DE2ADFCF01F0000E5C
:10265000DD2200C0E9FF01C0EAFF200EEF6E11D0BD
:1026600000EE02F0D950E926DA50EA22EECFEEF081
:10267000EDCFEFF0200EEEC0F6FFEFC0F7FF05EC58
:102680003BF00001E54BE62BE107D8A0E207D6C0FE
:10269000D9FFD7C0DAFF0001E251800A800F010E96
:1026A000D8B4E15DCCE20001E3A32CD0DE50DD1014
:1026B00012E0DFCF00F0DE2ADFCF01F0000EDD22D6
:1026C00000C0E9FF01C0EAFFE3B102D02B0E01D048
:1026D0002D0EEF6E3CD000EE02F0D950E926DA5014
:1026E000EA22EECFEEF0EDCFEFF00001E3B102D041
:1026F0002B0E01D02D0EEEC0F6FFEFC0F7FF05EC5C
:102700003BF024D00001E3A124D0DE50DD100DE029
:10271000DFCF00F0DE2ADFCF01F0000EDD2200C0A7
:10272000E9FF01C0EAFF200ED4D700EE02F0D95035
:10273000E926DA50EA22EECFEEF0EDCFEFF0200EF0
:10274000EEC0F6FFEFC0F7FF05EC3BF00001E54BF4
:10275000E62BE7C000F0E8C001F0E9C002F0CDECE4
:1027600039F000C0EAF001C0EBF002C0ECF003C0A9
:10277000EDF0D6C0D9FFD7C0DAFFDE50DD102FE074
:10278000DFCF00F0DE2ADFCF01F0000EDD2200C037
:10279000E1FF01C0E2FF0001DC51040DF350380FEE
:1027A000F66EF450F76E130EF7220900F5CF04F021
:1027B0000900F5CF05F00900F5CF06F00900F5CFC7
:1027C00007F0EAC000F0EBC001F0ECC002F0EDC091
:1027D00003F09CEC36F00050300FE76E33D000EE83
:1027E00002F0D950E926DA50EA22EECFEEF0EDCF32
:1027F000EFF00001DC51040DF350380FF66EF45089
:10280000F76E130EF7220900F5CF04F00900F5CF9B
:1028100005F00900F5CF06F00900F5CF07F0EAC092
:1028200000F0EBC001F0ECC002F0EDC003F09CEC56
:1028300036F00050300FEEC0F6FFEFC0F7FF05ECAA
:102840003BF00001E54BE62B0001DC51040DF35099
:10285000380FF66EF450F76E130EF7220900F5CF1D
:1028600004F00900F5CF05F00900F5CF06F00900E6
:10287000F5CF07F0EA0EE96E000EEA6E2EEC3AF0A4
:10288000D6C0D9FFD7C0DAFFE051DF1102E1E4A7DB
:10289000FBD0DE50DD100EE0DFCF00F0DE2ADFCF10
:1028A00001F0000EDD2200C0E9FF01C0EAFF2E0E9C
:1028B000EF6E11D000EE02F0D950E926DA50EA228C
:1028C000EECFEEF0EDCFEFF02E0EEEC0F6FFEFC044
:1028D000F7FF05EC3BF00001E54BE62BDCC000F018
:1028E000016A00BE01060050DF5F0150E05B00019D
:1028F000DC07DC2901E1C0D0E4A30ED0ED51EA11E0
:10290000EB11EC1109E10001DC6BD890000ED8B09E
:10291000010EDF6FE06BB0D0D6C0D9FFD7C0DAFFB1
:10292000DE50DD102FE0DFCF00F0DE2ADFCF01F038
:10293000000EDD2200C0E1FF01C0E2FF0001DC511A
:10294000040DF350380FF66EF450F76E130EF722A5
:102950000900F5CF04F00900F5CF05F00900F5CF27
:1029600006F00900F5CF07F0EAC000F0EBC001F077
:10297000ECC002F0EDC003F09CEC36F00050300FDC
:10298000E76E33D000EE02F0D950E926DA50EA22A1
:10299000EECFEEF0EDCFEFF00001DC51040DF3507F
:1029A000380FF66EF450F76E130EF7220900F5CFCC
:1029B00004F00900F5CF05F00900F5CF06F0090095
:1029C000F5CF07F0EAC000F0EBC001F0ECC002F078
:1029D000EDC003F09CEC36F00050300FEEC0F6FF77
:1029E000EFC0F7FF05EC3BF00001E54BE62B0001E3
:1029F000DC51040DF350380FF66EF450F76E130EE1
:102A0000F7220900F5CF04F00900F5CF05F0090021
:102A1000F5CF06F00900F5CF07F0EA0EE96E000EDB
:102A2000EA6E2EEC3AF063D7DE50DD100EE0DFCF19
:102A300000F0DE2ADFCF01F0000EDD2200C0E9FF4A
:102A400001C0EAFF300EEF6E11D000EE02F0D95057
:102A5000E926DA50EA22EECFEEF0EDCFEFF0300EBD
:102A6000EEC0F6FFEFC0F7FF05EC3BF00001E54BD1
:102A7000E62BDF07D8A0E007D6C0D9FFD7C0DAFF22
:102A80000001E051DF11D0E10001E3AB23D0DE50C3
:102A9000DD100EE0DFCF00F0DE2ADFCF01F0000E08
:102AA000DD2200C0E9FF01C0EAFF450EEF6E35D020
:102AB00000EE02F0D950E926DA50EA22EECFEEF02D
:102AC000EDCFEFF0450EEEC0F6FFEFC0F7FF05ECDF
:102AD0003BF022D0DE50DD100EE0DFCF00F0DE2A2A
:102AE000DFCF01F0000EDD2200C0E9FF01C0EAFFE8
:102AF000650EEF6E11D000EE02F0D950E926DA50E3
:102B0000EA22EECFEEF0EDCFEFF0650EEEC0F6FF6D
:102B1000EFC0F7FF05EC3BF00001E54BE62BD6C01C
:102B2000D9FFD7C0DAFF0001DEAF27D0DD6DDE1F91
:102B3000D8B0DE2BDE50DD100EE0DFCF00F0DE2A55
:102B4000DFCF01F0000EDD2200C0E9FF01C0EAFF87
:102B50002D0EEF6E35D000EE02F0D950E926DA5096
:102B6000EA22EECFEEF0EDCFEFF02D0EEEC0F6FF45
:102B7000EFC0F7FF05EC3BF022D0DE50DD100EE099
:102B8000DFCF00F0DE2ADFCF01F0000EDD2200C033
:102B9000E9FF01C0EAFF2B0EEF6E11D000EE02F04C
:102BA000D950E926DA50EA22EECFEEF0EDCFEFF081
:102BB0002B0EEEC0F6FFEFC0F7FF05EC3BF0000177
:102BC000E54BE62BD6C0D9FFD7C0DAFFDE50DD10CB
:102BD00018E0DFCF00F0DE2ADFCF01F0000EDD22AB
:102BE00000C0E9FF01C0EAFF0A0E026E036ADDC001
:102BF00000F0DEC001F095EC3AF00450300FEF6EBB
:102C00001BD000EE02F0D950E926DA50EA22EECFCE
:102C1000EEF0EDCFEFF00A0E026E036ADDC000F0B9
:102C2000DEC001F095EC3AF00450300FEEC0F6FF34
:102C3000EFC0F7FF05EC3BF00001E54BE62BD6C0FB
:102C4000D9FFD7C0DAFFDE50DD1018E0DFCF00F08B
:102C5000DE2ADFCF01F0000EDD2200C0E9FF01C057
:102C6000EAFF0A0E026E036ADDC000F0DEC001F06A
:102C700095EC3AF00050300FEF6E1BD000EE02F0F2
:102C8000D950E926DA50EA22EECFEEF0EDCFEFF0A0
:102C90000A0E026E036ADDC000F0DEC001F095ECA2
:102CA0003AF00050300FEEC0F6FFEFC0F7FF05EC32
:102CB0003BF00001E54BE62BD6C0D9FFD7C0DAFFC9
:102CC000E3A713EF0DF0E251800A800F010ED8B494
:102CD000E15D02E213EF0DF0DE50DD100EE0DFCF1C
:102CE00000F0DE2ADFCF01F0000EDD2200C0E9FF98
:102CF00001C0EAFF200EEF6E11D000EE02F0D950B5
:102D0000E926DA50EA22EECFEEF0EDCFEFF0200E1A
:102D1000EEC0F6FFEFC0F7FF05EC3BF00001E54B1E
:102D2000E62BD6C0D9FFD7C0DAFFE10EE96E000E60
:102D3000EA6EEE06000EED5AEE50ED10CDE113EF07
:102D40000DF00001E4A3CAD0DEAF0BD0DDC000F06F
:102D5000DEC001F0002A000E01220050DF5F0150AA
:102D6000E05BE7C000F0E8C001F0E9C002F0CDECA4
:102D700039F000C0EAF001C0EBF002C0ECF003C093
:102D8000EDF00001DC6BDC510A0A25E00001DC51AA
:102D9000040DF350380FF66EF450F76E130EF72251
:102DA0000900F5CF00F00900F5CF01F00900F5CFDB
:102DB00002F00900F5CF03F00350ED5D08E1025089
:102DC000EC5D05E10150EB5D02E10050EA5D03E3DB
:102DD0000001DC2BD8D7DCC000F0016A00BE010680
:102DE00000010050DF5F0150E05BE051800A800F7E
:102DF0000D0ED8B4DF5D0FE2DF5140EC0AF000C0E9
:102E000003F001C004F002C005F0E70EE96E000E09
:102E1000EA6E1BEC3BF0EAC000F0EBC001F0ECC046
:102E200002F0EDC003F085EC3AF000C0F1F001C013
:102E3000F2F002C0F3F0E7C000F0E8C001F0E9C032
:102E400002F0F1C003F0F2C004F0F3C005F01AEC98
:102E500039F000C0EEF001C0EFF002C0F0F0000168
:102E6000DF512CEC0BF0EEC003F0EFC004F0F0C02B
:102E700005F0EFEC37F0CDEC39F000C0EAF001C01E
:102E8000EBF002C0ECF003C0EDF00FD00A0E046EC0
:102E9000056A066A076AEA0EE96E000EEA6E0FEC32
:102EA0003BF00001DF07D8A0E0070001E051DF118F
:102EB0002CE00A0E046E056A066A076AEAC000F092
:102EC000EBC001F0ECC002F0EDC003F09CEC36F07A
:102ED0000750041005100610D9E017D00001E0518A
:102EE000800A800F0D0ED8B4DF5D0FE2DF5140EC99
:102EF0000AF000C003F001C004F002C005F0E70EC4
:102F0000E96E000EEA6E1BEC3BF0D6C0D9FFD7C0CD
:102F1000DAFF0001DE51800A800F0A0ED8B4DD5DB1
:102F200020E2E70EE96E000EEA6EEE50EE10EE10B3
:102F3000E7C000F0E8C001F0E9C002F001E19AD07A
:102F4000CDEC39F0035000100110021001E08CD0DC
:102F50000001DE51800A800F020ED8B4DD5D01E26F
:102F600083D0700E036E890E046E400E056EEAC0AB
:102F700000F0EBC001F0ECC002F012EC3AF00001FE
:102F800002E2F70E01D0F80EDD27FF0EDE2300016E
:102F9000DE51800A800F0A0ED8B4DD5D0A0E2CE3E4
:102FA000026E036ADDC000F0DEC001F095EC3AF07D
:102FB00004C000F005C001F0030E026E036ABAEC13
:102FC0003AF00450600FF66E0550F76E130EF722BC
:102FD0001B0EF626000EF7220900F5CF03F00900BC
:102FE000F5CF04F00900F5CF05F0E70EE96E000E0D
:102FF000EA6E2DEC3BF00A0E026E036ADDC000F0B3
:10300000DEC001F095EC3AF0030E026E036ABAECF2
:103010003AF00450600FF66E0550F76E130EF7226B
:103020000900F5CF03F00900F5CF04F00900F5CF52
:1030300005F0E70EE96E000EEA6E2DEC3BF0E7C0FE
:1030400000F0E8C001F0E9C002F0CDEC39F000C0BA
:10305000EAF001C0EBF002C0ECF003C0EDF00001BB
:10306000E76BE86BE96B29D0E7C000F0E8C001F03E
:10307000E9C002F0CDEC39F000C0EAF001C0EBF09D
:1030800002C0ECF003C0EDF0EAC000F0EBC001F0CC
:10309000ECC002F0EDC003F085EC3AF000C003F0A4
:1030A00001C004F002C005F0E70EE96E000EEA6E02
:1030B00019EC3BF00001DD6BDE6B010E0001DC6FF3
:1030C000DC510A0A25E00001DC51040DF350380FF1
:1030D000F66EF450F76E130EF7220900F5CF00F0EC
:1030E0000900F5CF01F00900F5CF02F00900F5CF96
:1030F00003F00350ED5D08E10250EC5D05E1015085
:10310000EB5D02E10050EA5D03E30001DC2BD8D760
:10311000DCC000F0016A00BE01060001DF5100269C
:10312000E0510122DD510026DE5101220050E15F15
:103130000150E25BE4B703D0E051DF1104E000018D
:10314000E107D8A0E207030EE3C000F0E4C001F0FD
:103150000016016A0150001004E00001E107D8A048
:10316000E2070001E3A58CD0E3A32FD0DE50DD10F1
:1031700014E0DFCF00F0DE2ADFCF01F0000EDD2209
:1031800000C0E9FF01C0EAFFE3B102D02B0E01D07D
:103190002D0EEF6EE54BE62B69D000EE02F0D95014
:1031A000E926DA50EA22EECFEEF0EDCFEFF00001A3
:1031B000E3B102D02B0E01D02D0EEEC0F6FFEFC012
:1031C000F7FF05EC3BF00001E5D70001E3A14ED08D
:1031D000DE50DD100DE0DFCF00F0DE2ADFCF01F0A2
:1031E000000EDD2200C0E9FF01C0EAFF200ED1D7AA
:1031F00000EE02F0D950E926DA50EA22EECFEEF0E6
:10320000EDCFEFF0200EEEC0F6FFEFC0F7FF05ECBC
:103210003BF0D9D7D6C0D9FFD7C0DAFFDE50DD10DA
:103220000EE0DFCF00F0DE2ADFCF01F0000EDD225E
:1032300000C0E9FF01C0EAFF300EEF6E11D000EED2
:1032400002F0D950E926DA50EA22EECFEEF0EDCFC7
:10325000EFF0300EEEC0F6FFEFC0F7FF05EC3BF0ED
:103260000001E54BE62BE107D8A0E2070001E2519F
:10327000800A800F010ED8B4E15D01E28FD0CAD779
:103280000001E3A729D034D0DE50DD100EE0DFCFFF
:1032900000F0DE2ADFCF01F0000EDD2200C0E9FFE2
:1032A00001C0EAFF200EEF6E11D000EE02F0D950FF
:1032B000E926DA50EA22EECFEEF0EDCFEFF0200E65
:1032C000EEC0F6FFEFC0F7FF05EC3BF00001E54B69
:1032D000E62BE107D8A0E207D6C0D9FFD7C0DAFFB6
:1032E0000001E251800A800F010ED8B4E15DCCE20A
:1032F0000001E3A32CD0DE50DD1012E0DFCF00F0A0
:10330000DE2ADFCF01F0000EDD2200C0E9FF01C0A0
:10331000EAFFE3B102D02B0E01D02D0EEF6E3CD0B0
:1033200000EE02F0D950E926DA50EA22EECFEEF0B4
:10333000EDCFEFF00001E3B102D02B0E01D02D0E46
:10334000EEC0F6FFEFC0F7FF05EC3BF024D0000124
:10335000E3A124D0DE50DD100DE0DFCF00F0DE2A47
:10336000DFCF01F0000EDD2200C0E9FF01C0EAFF5F
:10337000200ED4D700EE02F0D950E926DA50EA2226
:10338000EECFEEF0EDCFEFF0200EEEC0F6FFEFC087
:10339000F7FF05EC3BF00001E54BE62B0001DC07F5
:1033A000DC29D6C0D9FF01E19ED0D7C0DAFFDE50BC
:1033B000DD1035E0DFCF00F0DE2ADFCF01F0000EB8
:1033C000DD2200C0E1FF01C0E2FFDC51040DF3503B
:1033D000380FF66EF450F76E130EF7220900F5CF92
:1033E00004F00900F5CF05F00900F5CF06F009005B
:1033F000F5CF07F0EAC000F0EBC001F0ECC002F03E
:10340000EDC003F09CEC36F00A0E046E056A066A05
:10341000076A9CEC36F00450300FE76EBDD700EE23
:1034200002F0D950E926DA50EA22EECFEEF0EDCFE5
:10343000EFF00001DC51040DF350380FF66EF4503C
:10344000F76E130EF7220900F5CF04F00900F5CF4F
:1034500005F00900F5CF06F00900F5CF07F0EAC046
:1034600000F0EBC001F0ECC002F0EDC003F09CEC0A
:1034700036F00A0E046E056A066A076A9CEC36F09E
:103480000450300FEEC0F6FFEFC0F7FF05EC3BF045
:1034900082D7DE50DD100EE0DFCF00F0DE2ADFCF76
:1034A00001F0000EDD2200C0E9FF01C0EAFF300E8E
:1034B000EF6E11D000EE02F0D950E926DA50EA2280
:1034C000EECFEEF0EDCFEFF0300EEEC0F6FFEFC036
:1034D000F7FF05EC3BF00001E54BE62BDD07D8A03C
:1034E000DE07D6C0D9FFD7C0DAFF0001DE51800A5F
:1034F000800F010ED8B4DD5DCCE2E051800A800F70
:10350000090ED8B4DF5D02E3080E02D00001DF51DE
:10351000DC6FDCC000F0016A00BE01060001005053
:10352000DF5F0150E05BDC5102E1E4A725D0DE5013
:10353000DD100EE0DFCF00F0DE2ADFCF01F0000E5D
:10354000DD2200C0E9FF01C0EAFF2E0EEF6E11D0B0
:1035500000EE02F0D950E926DA50EA22EECFEEF082
:10356000EDCFEFF02E0EEEC0F6FFEFC0F7FF05EC4B
:103570003BF00001E54BE62B0001DC512CEC0BF09D
:10358000E7C003F0E8C004F0E9C005F0EFEC37F065
:10359000CDEC39F000C0EAF001C0EBF002C0ECF075
:1035A00003C0EDF00001DC07DC29D6C0D9FF01E142
:1035B000BBD0D7C0DAFFDE50DD1034E0DFCF00F043
:1035C000DE2ADFCF01F0000EDD2200C0E1FF01C0E6
:1035D000E2FFDC51040DF350380FF66EF450F76E35
:1035E000130EF7220900F5CF04F00900F5CF05F01E
:1035F0000900F5CF06F00900F5CF07F0EAC000F0AA
:10360000EBC001F0ECC002F0EDC003F09CEC36F032
:1036100000500A0E016E005077EC39F00050300F68
:10362000E76E39D000EE02F0D950E926DA50EA22EE
:10363000EECFEEF0EDCFEFF00001DC51040DF350D2
:10364000380FF66EF450F76E130EF7220900F5CF1F
:1036500004F00900F5CF05F00900F5CF06F00900E8
:10366000F5CF07F0EAC000F0EBC001F0ECC002F0CB
:10367000EDC003F09CEC36F000500A0E016E0050D5
:1036800077EC39F00050300FEEC0F6FFEFC0F7FFD7
:1036900005EC3BF00001E54BE62B0001DC51040D8D
:1036A000F350380FF66EF450F76E130EF722090040
:1036B000F5CF04F00900F5CF05F00900F5CF06F0CD
:1036C0000900F5CF07F0EA0EE96E000EEA6E2EEC67
:1036D0003AF068D7DE50DD100EE0DFCF00F0DE2AD2
:1036E000DFCF01F0000EDD2200C0E9FF01C0EAFFDC
:1036F000300EEF6E11D000EE02F0D950E926DA500C
:10370000EA22EECFEEF0EDCFEFF0300EEEC0F6FF96
:10371000EFC0F7FF05EC3BF00001E54BE62BDF07C0
:10372000D8A0E007D6C0D9FFD7C0DAFF0001E0512A
:10373000DF11D0E1E3A713EF0DF0E251800A800F13
:10374000010ED8B4E15D02E213EF0DF0DE50DD10A2
:103750000EE0DFCF00F0DE2ADFCF01F0000EDD2229
:1037600000C0E9FF01C0EAFF200EEF6E11D000EEAD
:1037700002F0D950E926DA50EA22EECFEEF0EDCF92
:10378000EFF0200EEEC0F6FFEFC0F7FF05EC3BF0C8
:103790000001E54BE62BD6C0D9FFD7C0DAFFE10E1A
:1037A000E96E000EEA6EEE06000EED5AEE50ED10D8
:1037B000CDE113EF0DF0C00EE3C000F0E4C001F066
:1037C0000016016A0150001057E10001DAC0E9FF5C
:1037D000DBC0EAFFEFCF00F0E3A913D0040EEE2622
:1037E000EFCF01F0000EED2200C0E9FF01C0EAFFBB
:1037F000EECFEAF0EECFEBF0EECFECF0EECFEDF067
:103800001AD0020EEE26EFCF01F0000EED2200C01E
:10381000E9FF01C0EAFFEECF00F0EDCF01F001BEFD
:10382000FF0E026E036E00C0EAF001C0EBF002C0B2
:10383000ECF003C0EDF00001EDAF4FD0030EE31349
:10384000EAC000F0EBC001F0ECC002F0EDC003F004
:10385000001E011E021E031E002AD8B4012AD8B47D
:10386000022AD8B4032A00C0EAF001C0EBF002C07B
:10387000ECF003C0EDF031D00001DAC0E9FFDBC0AD
:10388000EAFFEFCF00F0E3A913D0040EEE26EFCF4E
:1038900001F0000EED2200C0E9FF01C0EAFFEECF0B
:1038A000EAF0EECFEBF0EECFECF0EECFEDF015D08E
:1038B000020EEE26EFCF01F0000EED2200C0E9FF70
:1038C00001C0EAFFEECF00F0EDCF01F000500001A3
:1038D000EA6F0150EB6FEC6BED6B0001E051DF1113
:1038E00001E08BD0ED51EA11EB11EC1101E086D033
:1038F000DF4BE02B82D0010E0001DC6FDC510A0AA5
:1039000001E187D00001DC51040DF350380FF66E51
:10391000F450F76E130EF7220900F5CF00F00900FE
:10392000F5CF01F00900F5CF02F00900F5CF03F063
:103930000350ED5D08E10250EC5D05E10150EB5DE7
:1039400002E10050EA5D65E30001DC2BD7D7010EF0
:103950000001DC6FDC51080A5CE00001DC51040D61
:10396000F3509F0FF66EF450F76E130EF722090016
:10397000F5CF00F00900F5CF01F00900F5CF02F016
:103980000900F5CF03F00350ED5D08E10250EC5D56
:1039900005E10150EB5D02E10050EA5D3AE3000110
:1039A000DC2BD8D7010E0001DC6FDC510C0A31E0B2
:1039B0000001DC51040DF350BF0FF66EF450F76EAA
:1039C000130EF7220900F5CF00F00900F5CF01F042
:1039D0000900F5CF02F00900F5CF03F00350ED5DCB
:1039E00008E10250EC5D05E10150EB5D02E10050A1
:1039F000EA5D0FE30001DC2BD8D70001E351C00BD7
:103A000001E179D7400ACEE0C00AA1E0400A01E115
:103A100072D7DCC000F0016A00BE0106000101504F
:103A2000800A026EE051800A025C02E1DF51005C14
:103A300003E2DF51DC6F15D0DCC000F0016A00BE8C
:103A400001060001E051800A026E0150800A025C0A
:103A500002E10050DF5D05E2DC51DF6FE06BDFBFAC
:103A6000E0070001E251E1110DE0030EE3C000F0B8
:103A7000E4C001F00016016A0150001003E0E10704
:103A8000D8A0E2070001E051800A006EE251800AEE
:103A9000005C02E1E151DF5D05E2DF51E15FE051F1
:103AA000E25B03D00001E16BE26B0001C40EE315A1
:103AB000006E080EE415016E0150080A400ED8B4DD
:103AC000001807E1E251E11120E0E107D8A0E20788
:103AD0001CD00001C00EE315006E080EE415016E47
:103AE0000150080A800ED8B400180FE1E251800A94
:103AF000800F030ED8B4E15D05E3FE0EE127FF0E53
:103B0000E22303D00001E16BE26B0001E3A5EFD0FB
:103B1000E3A32BD0DE50DD1011E0DFCF00F0DE2A72
:103B2000DFCF01F0000EDD2200C0E9FF01C0EAFF97
:103B3000E3B102D02B0E2BD02D0E29D000EE02F0D7
:103B4000D950E926DA50EA22EECFEEF0EDCFEFF0D1
:103B50000001E3B102D02B0E01D02D0EEEC0F6FF16
:103B6000EFC0F7FF05EC3BF087D00001E3A123D0C5
:103B7000DE50DD100EE0DFCF00F0DE2ADFCF01F0F7
:103B8000000EDD2200C0E9FF01C0EAFF200EEF6E4B
:103B900074D000EE02F0D950E926DA50EA22EECFD6
:103BA000EEF0EDCFEFF0200EEEC0F6FFEFC0F7FF26
:103BB00005EC3BF061D00001C00EE315006E080E6D
:103BC000E415016E0150080A800ED8B4001857E1C0
:103BD000DE50DD100EE0DFCF00F0DE2ADFCF01F097
:103BE000000EDD2200C0E9FF01C0EAFF300EEF6EDB
:103BF00012D000EE02F0D950E926DA50EA22EECFD8
:103C0000EEF0EDCFEFF0300EEEC0F6FFEFC0F7FFB5
:103C100005EC3BF00001E54BE62BD6C0D9FFD7C041
:103C2000DAFFDE50DD1012E0DFCF00F0DE2ADFCF5A
:103C300001F0000EDD2200C0E9FF01C0EAFF000133
:103C4000E3BB02D0780EA3D7580EA1D700EE02F046
:103C5000D950E926DA50EA22EECFEEF0EDCFEFF0C0
:103C60000001E3BB02D0780E01D0580EEEC0F6FF83
:103C7000EFC0F7FF05EC3BF00001E54BE62B000140
:103C8000E251E111D6C0D9FF01E13CD2D7C0DAFF41
:103C9000DE50DD100EE0DFCF00F0DE2ADFCF01F0D6
:103CA000000EDD2200C0E9FF01C0EAFF300EEF6E1A
:103CB00011D000EE02F0D950E926DA50EA22EECF18
:103CC000EEF0EDCFEFF0300EEEC0F6FFEFC0F7FFF5
:103CD00005EC3BF00001E54BE62BE10EE96E000E32
:103CE000EA6EEE06000EED5AEE50ED10CBD7000155
:103CF000E251E111D8A4E3B733D0DE50DD100EE07D
:103D0000DFCF00F0DE2ADFCF01F0000EDD2200C0A1
:103D1000E9FF01C0EAFF200EEF6E11D000EE02F0C5
:103D2000D950E926DA50EA22EECFEEF0EDCFEFF0EF
:103D3000200EEEC0F6FFEFC0F7FF05EC3BF00001F0
:103D4000E54BE62BD6C0D9FFD7C0DAFFE10EE96E0E
:103D5000000EEA6EEE06000EED5AEE50ED10CDE1CB
:103D60000001E3A32CD0DE50DD1012E0DFCF00F025
:103D7000DE2ADFCF01F0000EDD2200C0E9FF01C026
:103D8000EAFFE3B102D02B0E01D02D0EEF6E3CD036
:103D900000EE02F0D950E926DA50EA22EECFEEF03A
:103DA000EDCFEFF00001E3B102D02B0E01D02D0ECC
:103DB000EEC0F6FFEFC0F7FF05EC3BF024D00001AA
:103DC000E3A124D0DE50DD100DE0DFCF00F0DE2ACD
:103DD000DFCF01F0000EDD2200C0E9FF01C0EAFFE5
:103DE000200ED4D700EE02F0D950E926DA50EA22AC
:103DF000EECFEEF0EDCFEFF0200EEEC0F6FFEFC00D
:103E0000F7FF05EC3BF00001E54BE62BD6C0D9FFF0
:103E1000D7C0DAFF0001C00EE315006E080EE415EE
:103E2000016E0150080A400ED8B4001823E1DE509C
:103E3000DD100EE0DFCF00F0DE2ADFCF01F0000E54
:103E4000DD2200C0E9FF01C0EAFF300EEF6E56D15F
:103E500000EE02F0D950E926DA50EA22EECFEEF079
:103E6000EDCFEFF0300EEEC0F6FFEFC0F7FF05EC40
:103E70003BF043D10001C00EE315006E080EE415BF
:103E8000016E0150080A800ED8B4001801E038D144
:103E9000DE50DD100EE0DFCF00F0DE2ADFCF01F0D4
:103EA000000EDD2200C0E9FF01C0EAFF300EEF6E18
:103EB00012D000EE02F0D950E926DA50EA22EECF15
:103EC000EEF0EDCFEFF0300EEEC0F6FFEFC0F7FFF3
:103ED00005EC3BF00001E54BE62BD6C0D9FFD7C07F
:103EE000DAFFDE50DD1012E0DFCF00F0DE2ADFCF98
:103EF00001F0000EDD2200C0E9FF01C0EAFF000171
:103F0000E3BB02D0780EA2D7580EA0D700EE02F085
:103F1000D950E926DA50EA22EECFEEF0EDCFEFF0FD
:103F20000001E3BB02D0780E01D0580EEEC0F6FFC0
:103F3000EFC0F7FF05EC3BF0E0D0DFC000F0E0C0E1
:103F400001F0D89000360136D89000360136005086
:103F5000380FF66E0150F76E130EF7220900F5CFF9
:103F600004F00900F5CF05F00900F5CF06F00900CF
:103F7000F5CF07F0EAC000F0EBC001F0ECC002F0B2
:103F8000EDC003F09CEC36F00A0E046E056A066A7A
:103F9000076A9CEC36F004507CD0DFC000F0E0C033
:103FA00001F0D89000360136D89000360136005026
:103FB0009F0FF66E0150F76E130EF7220900F5CF32
:103FC00004F00900F5CF05F00900F5CF06F009006F
:103FD000F5CF07F0EAC000F0EBC001F0ECC002F052
:103FE000EDC003F09CEC36F000C004F001C005F019
:103FF00002C006F003C007F00F0E0416056A0001A8
:10400000E3BB04D0EF0E006E130E03D0000E006E63
:10401000140E016E04500024026E05500120036E40
:1040200002C0F6FF03C0F7FF0F0EF76403D00800CD
:10403000F55005D0F6CFE9FFF7CFEAFFEF502BD0D0
:10404000DFC000F0E0C001F0D89000360136D89013
:10405000003601360050BF0FF66E0150F76E130E9A
:10406000F7220900F5CF04F00900F5CF05F00900AB
:10407000F5CF06F00900F5CF07F0EAC000F0EBC07D
:1040800001F0ECC002F0EDC003F09CEC36F0005003
:10409000070B300F0001DC6F0DD00001E351C00BA6
:1040A00001E14BD7400ACCE0C00A01E176D7400AD3
:1040B00001E143D7DE50DD100EE0DFCF00F0DE2A55
:1040C000DFCF01F0000EDD2200C0E9FF01C0EAFFF2
:1040D000DCC0EFFF12D000EE02F0D950E926DA5032
:1040E000EA22EECFEEF0EDCFEFF00001DC51EEC0B2
:1040F000F6FFEFC0F7FF05EC3BF00001E54BE62BC8
:10410000D6C0D9FFD7C0DAFF0001DF51006EE05101
:10411000016EDF07000EE05B01500010BEE1E3A777
:1041200013EF0DF0E251800A800F010ED8B4E15D6B
:1041300002E213EF0DF0DE50DD100EE0DFCF00F0F5
:10414000DE2ADFCF01F0000EDD2200C0E9FF01C052
:10415000EAFF200EEF6E11D000EE02F0D950E926F2
:10416000DA50EA22EECFEEF0EDCFEFF0200EEEC007
:10417000F6FFEFC0F7FF05EC3BF00001E54BE62B47
:10418000D6C0D9FFD7C0DAFFE10EE96E000EEA6EA5
:10419000EE06000EED5AEE50ED1002E113EF0DF0B9
:1041A000CAD7E5C000F0E6C001F01200E9EC33F038
:1041B0000150800A800F010ED8B4005C02E30400B5
:1041C000F5D74D0E0001C16FC26BE4EC3AF0E9EC9B
:1041D00033F00150800A800F010ED8B4005CD8A0E3
:1041E00012000400F4D70001B00E8D6F040E8E6F24
:1041F00000EE91F0EE6AEE6A00EE93F0EE6AEE6A7F
:10420000120E0001CC6FCD6B910ECE6F000ECF6FF2
:10421000020ED06FD4EC28F0140E0001CC6FCD6BE1
:10422000930ECE6F000ECF6F020ED06FD4EC28F03D
:104230000001F40EBE6F010EBF6F8CEC38F01194CC
:10424000128400EE9DF0EE6AEE6A0F01276B1200F9
:104250000001BB6BE80EBE6F030EBF6F8CEC38F035
:104260000001360EC16F010EC26FE4EC3AF0020E8F
:104270000001BC6FBD6BADEC38F02ECF00F0016AD1
:104280000050A50FF66E0150F76E100EF7220800D1
:10429000F55035EC37F08ADF2ECF38FF2FCF37FFC0
:1042A00000011E0E9D6F9E6B0400E9EC33F0005080
:1042B000020A011018E1010E0001BB6F2FCF00F0C0
:1042C000016A0050A90FF66E0150F76E100EF7222A
:1042D0000800F55035EC37F00A0E0001BE6FBF6BD9
:1042E0008CEC38F063DFE9EC33F00004011017E1E7
:1042F0000001BB6B2ECF00F0016A0050A50FF66ED7
:104300000150F76E100EF7220800F55035EC37F02B
:104310000A0E0001BE6FBF6B8CEC38F047DF000166
:10432000BB511EE1E9EC33F00050800A011039E185
:104330000F012E2B030E2E6501D02E6B2ECF00F019
:10434000016A0050A50FF66E0150F76E100EF722AD
:104350000800F55035EC37F04DEC2CF027DF1DD080
:10436000E9EC33F00050800A01101BE10F012F2B04
:10437000030E2F6501D02F6B2FCF00F0016A005084
:10438000A90FF66E0150F76E100EF7220800F550D7
:1043900035EC37F04DEC2CF009DF00011E0E9D6F5F
:1043A0009E6BE9EC33F00050080A011009E00001AF
:1043B0009E51800A800F010ED8B49D5D01E374D731
:1043C00000019E51800A800F010ED8B49D5D17E355
:1043D0000A0E0001BE6FBF6B8CEC38F00F0E0001AF
:1043E000D16FD26B2ECFD3F04BEC3AF00E0E000112
:1043F000D16FD26B2FCFD3F04BEC3AF004D038CF43
:104400002EFF37CF2FFF00011E0E9D6F9E6B0F0EEC
:1044100035EC37F04DEF2CF0020E0001BC6FBD6B98
:10442000ADEC38F035CF00F0016A0050B50FF66EF4
:104430000150F76E100EF7220800F55035EC37F0FA
:10444000B5DE35CF38FF00011E0E9D6F9E6B040058
:10445000E9EC33F00050800A011019E10F01352B0F
:10446000020E356501D0356B35CF00F0016A005082
:10447000B50FF66E0150F76E100EF7220800F550DA
:1044800035EC37F000011E0E9D6F9E6B8FDEE9EC60
:1044900033F00050080A011008E000019E51800A24
:1044A000800F010ED8B49D5DD2E200019E51800ABA
:1044B000800F010ED8B49D5D0FE30A0E0001BE6FA0
:1044C000BF6B8CEC38F00A0E0001D16FD26B35CF88
:1044D000D3F04BEC3AF03AD138CF35FF37D1030E59
:1044E0000001BC6FBD6BADEC38F031CF00F0016A5C
:1044F0000050B10FF66E0150F76E100EF722080053
:10450000F55035EC37F052DE31CF38FF00011E0E8A
:104510009D6F9E6B0400E9EC33F00050800A01109F
:1045200019E10F01312B030E316501D0316B31CF11
:1045300000F0016A0050B10FF66E0150F76E100ED8
:10454000F7220800F55035EC37F000011E0E9D6F84
:104550009E6B2CDEE9EC33F00050080A011008E0F5
:1045600000019E51800A800F010ED8B49D5DD2E2F9
:1045700000019E51800A800F010ED8B49D5D0FE3AB
:104580000A0E0001BE6FBF6B8CEC38F0080E000104
:10459000D16FD26B31CFD3F04BEC3AF0D7D038CFCC
:1045A00031FFD4D0040E0001BC6FBD6BADEC38F010
:1045B00034CF00F0016A0050AD0FF66E0150F76E77
:1045C000100EF7220800F55035EC37F0EFDD34CF50
:1045D00038FF00011E0E9D6F9E6B0400E9EC33F066
:1045E0000050800A011019E10F01342B030E3465CD
:1045F00001D0346B34CF00F0016A0050AD0FF66E7D
:104600000150F76E100EF7220800F55035EC37F028
:1046100000011E0E9D6F9E6BC9DDE9EC33F000506A
:10462000080A011008E000019E51800A800F010E67
:10463000D8B49D5DD2E200019E51800A800F010E28
:10464000D8B49D5D0FE30A0E0001BE6FBF6B8CEC0A
:1046500038F0090E0001D16FD26B34CFD3F04BECA0
:104660003AF074D038CF34FF71D0050E0001BC6F22
:10467000BD6BADEC38F036CFE8FF030B0001BB6F2C
:10468000BBC000F0016A0050B80FF66E0150F76E23
:10469000100EF7220800F55035EC37F087DD0001E9
:1046A0001E0E9D6F9E6B0400E9EC33F00050800AF3
:1046B000011019E10001BB07030EBB6501D0BB6F00
:1046C000BBC000F0016A0050B80FF66E0150F76EE3
:1046D000100EF7220800F55035EC37F000011E0EE1
:1046E0009D6F9E6B63DDE9EC33F00050080A01100A
:1046F00008E000019E51800A800F010ED8B49D5D34
:10470000D2E200019E51800A800F010ED8B49D5D57
:1047100015E30A0E0001BE6FBF6B8CEC38F00F0181
:10472000FC0E36170001BB510F0136130D0E0001B0
:10473000D16FD26B36CFD3F04BEC3AF000EE9BF05A
:10474000EE6AEE6A00EE8BF0EE6AEE6A00011E0E73
:104750009D6F9E6B0F0E35EF37F0FCEC33F0006E63
:1047600000BE1200060E0001BC6FBD6BADEC38F050
:1047700032CF00F0016A0050BC0FF66E0150F76EA8
:10478000100EF7220800F55035EC37F00FDD32CF70
:1047900038FF00011E0E9D6F9E6B0400E9EC33F0A4
:1047A0000050800A011019E10F01322B030E32650F
:1047B00001D0326B32CF00F0016A0050BC0FF66EB0
:1047C0000150F76E100EF7220800F55035EC37F067
:1047D00000011E0E9D6F9E6BE9DCE9EC33F000508A
:1047E000080A011008E000019E51800A800F010EA6
:1047F000D8B49D5DD2E200019E51800A800F010E67
:10480000D8B49D5D0FE30A0E0001BE6FBF6B8CEC48
:1048100038F01A0E0001D16FD26B32CFD3F04BECCF
:104820003AF002D038CF32FF00011E0E9D6F9E6B12
:104830000F0E35EC37F04DEF2CF0060E0001BC6F7B
:10484000BD6BADEC38F06F0E35EC37F0139604000D
:10485000E9EC33F00050020A01100AE183849B0E58
:104860000001C16FC26BE4EC3AF08380138602D082
:1048700074EC31F0E9EC33F00050080A0110D8B4C0
:1048800013A6E5D774EC31F00A0E0001BE6FBF6BC2
:104890008CEC38F0E9EC33F00050080A0110FAE033
:1048A0000F0123A133D06B0E35EC37F013960400C3
:1048B000E9EC33F0000401100AE183869B0E00014D
:1048C000C16FC26BE4EC3AF08380138602D074ECC3
:1048D00031F0E9EC33F00050080A0110D8B413A607
:1048E000E6D774EC31F00A0E0001BE6FBF6B8CECA2
:1048F00038F0E9EC33F00050080A0110FAE000014A
:10490000080EC16F030EC26FE4EC3AF06A0E35EC8C
:1049100037F0119C0001580EB96F020EBA6F13D810
:10492000640E0001BE6FBF6B8CEC38F00F01369542
:10493000C6EC2BF00D0E0001D16FD26B36CFD3F049
:104940004BEF3AF0B900090EE8CF29FF11BC120075
:10495000129C0001BB6BBC6B640EBD6FBD5109E0C6
:1049600085B404D0010E0001BB6FBC6B0001BD0714
:10497000F5D70001BC51BB1146E184966A0E35ECB7
:1049800037F083889B0E0001C16FC26BE4EC3AF0F4
:1049900083800001B9C0A9F0BAC0AAF0AB6BAC6BC0
:1049A00017D0040085B414D00F0E0001C16FC26B84
:1049B000E4EC3AF085B40CD00F0E0001C16FC26B6D
:1049C000E4EC3AF0000E85A4010E0001BB6FBC6B55
:1049D0000001BC51BB110FE100EEACF0ED50800ABC
:1049E000800F08E1000EED5C05E1000EED5C02E1D8
:1049F000010EED5CD6E274EC31F000EEA9F0EE6A47
:104A0000EE6AEE6AEE6A0001BC51BB1101E06FD0A4
:104A1000040E69EC2FF0650EC9EF2AF0B9000D0EF7
:104A2000E8CF29FF0001000E725D6E0ED8B4715DF3
:104A300001E35DD00001BB6BBC6B640EBD6FBD516B
:104A400009E085B004D0010E0001BB6FBC6B000112
:104A5000BD07F5D70001BC51BB1145E16B0E35EC2C
:104A600037F083869B0E0001C16FC26BE4EC3AF015
:104A700083800001B9C0A9F0BAC0AAF0AB6BAC6BDF
:104A800017D0040085B014D00F0E0001C16FC26BA7
:104A9000E4EC3AF085B00CD00F0E0001C16FC26B90
:104AA000E4EC3AF0000E85A0010E0001BB6FBC6B78
:104AB0000001BC51BB110FE100EEACF0ED50800ADB
:104AC000800F08E1000EED5C05E1000EED5C02E1F7
:104AD000010EED5CD6E274EC31F000EEA9F0EE6A66
:104AE000EE6AEE6AEE6A0001BC51BB1103E01A0ED9
:104AF00035EF37F0050E69EC2FF0440EC9EF2AF0C0
:104B00000400010EC26E0B0EC16EA20EC06E0F012C
:104B1000166B00EE87F0EE6AEE6AEE6AEE6A00EE61
:104B200081F0EE6AEE6A0F01286B9E9C9F9C9E9C12
:104B30009D8CC28212000B0EC16EA20EC06E90D070
:104B40001F0E926EC3500001FE6FC450FF6F00EE47
:104B500087F0FE51EE26FF51EE22000EEE22ED22EE
:104B6000ED52ED520001812B82238251010A000E89
:104B7000D8B4811901E07FD088C079F089C07AF07B
:104B800000EE87F0EE6AEE6AEE6AEE6A00EE81F001
:104B9000EE6AEE6A090EC26E010EE8CF16FF000E35
:104BA0007A5DC60ED8B4795D0AE3030E7A5DE80E2D
:104BB000D8B4795D04E2080EE8CF39FF10980F01F0
:104BC000395359E1108845D0C3500001FE6FC450DD
:104BD000FF6F00EE87F0FE51EE26FF51EE22000E31
:104BE000EE22ED22ED52ED520001812B8223825103
:104BF000010A000ED8B481193EE188C07DF089C059
:104C00007EF000EE87F0EE6AEE6AEE6AEE6A00EE83
:104C100081F0EE6AEE6A010EC26E0F01166B010E94
:104C2000E8CF28FF0F0123A126D000017E5DDD0E15
:104C3000D8B47D5D0AE3030E7E5DF30ED8B47D5DCE
:104C400004E2080EE8CF3AFF109C0F013A5313E13B
:104C5000108C00EE6BF0EE6AEE6A849284940BD0B6
:104C600016CFE8FF000A01E16BD7010AADE00F01A2
:104C7000166B010EC26EC282120010A806D0000E82
:104C800069EC2FF0450EC9EC2AF00001020E845D9C
:104C9000690ED8B4835D1EE31E0E026E036A83C0E4
:104CA00000F084C001F0BAEC3AF0800E0426000E49
:104CB000052205C004F0056A04500001C56F0550C7
:104CC000C66FC76BC86BC50EE96E000EEA6EEE507C
:104CD0007A081DD0230E026E036A83C000F084C0E0
:104CE00001F0BAEC3AF0800E0426000E052205C051
:104CF00004F0056A04500001C56F0550C66FC76B0C
:104D0000C86BC50EE96E000EEA6EEE508608C56FE0
:104D1000000EEE54C66F000EEE54C76F000EED5439
:104D2000C86FED52ED5241CF00F0000E00BEFF0EF5
:104D3000016E026E036E00010050C5270150C623AC
:104D40000250C7230350C823C851800A800F08E1CE
:104D5000000EC75D05E1000EC65D02E1D50EC55D22
:104D600005E3D40EC56FC66BC76BC86B0001C85195
:104D7000800A800F08E1000EC75D05E1000EC65DE8
:104D800002E1050EC55D05E2050EC56FC66BC76B7A
:104D9000C86BC5C000F0C6C001F0C7C002F0C8C0F3
:104DA00003F0120010AC08D067EC29F0020E69EC99
:104DB0002FF0250EC9EC2AF00001030E865D350E9A
:104DC000D8B4855D22E3330E026E036A85C000F01D
:104DD00086C001F0BAEC3AF0400E0426000E05221F
:104DE000070E006ED89005320432002EFBD7045017
:104DF0000001C56F0550C66FC76BC86BC50EE96E65
:104E0000000EEA6EEE50D8081DD03D0E026E036A09
:104E100085C000F086C001F0BAEC3AF0800E04269E
:104E2000000E052205C004F0056A04500001C56F9C
:104E30000550C66FC76BC86BC50EE96E000EEA6EF3
:104E4000EE504408C56F010EEE54C66F000EEE54CE
:104E5000C76F000EED54C86FED52ED5240CF00F019
:104E6000000E00BEFF0E016E026E036E00010050C8
:104E7000C5270150C6230250C7230350C823C85179
:104E8000800A800F08E1000EC75D05E1000EC65DD7
:104E900002E1D50EC55D05E3D40EC56FC66BC76BC9
:104EA000C86B0001C851800A800F08E1000EC75D81
:104EB00005E1000EC65D02E1050EC55D05E2050EC9
:104EC000C56FC66BC76BC86BC5C000F0C6C001F02C
:104ED000C7C002F0C8C003F012009D9C79C083F0E7
:104EE0007AC084F07DC085F07EC086F09D8C120073
:104EF000010EE8CF29FF000E84B6010E0001B96F44
:104F0000000E84B2010EBA6FFCEC33F0800BE8CFD8
:104F100019FFE3DFB2DE00C06FF001C070F00F01D7
:104F200023A105D03FDF00C071F001C072F0000185
:104F30009D519E11D8A41200050E9D6F000E9E6B10
:104F400085A4010EE8CF2DFFBEEC2FF000011E0E50
:104F5000CE6F100ECF6F6BC0C3F06CC0C4F085C0B5
:104F6000C1F086C0C2F071C0BFF072C0C0F083C093
:104F7000BDF084C0BEF06FC0BBF070C0BCF0BB0E13
:104F8000E8CFCCF0000EE8CFCDF066EC3AF00001AF
:104F9000050ECE6F100ECF6F000E13B4010E006E13
:104FA000016A00C0C3F001C0C4F0BAC000F0016AD9
:104FB00000C0C1F001C0C2F0B9C000F0016A00C079
:104FC000BFF001C0C0F02DCFBDF0BE6BBD0EE8CF6D
:104FD000CCF0000EE8CFCDF066EC3AF0000E85A0E4
:104FE000010EE8CF2DFF0001400ECE6F100ECF6FE7
:104FF0002DCFC3F0C46B26CFC1F0C26B93C0BFF0FE
:1050000094C0C0F091C0BDF092C0BEF0BD0EE8CF1C
:10501000CCF0000EE8CFCDF066EF3AF0F29E0E0E27
:105020000001D16FD26B020ED36F4BEC3AF00F0E32
:105030000001D16FD26B010ED36F4BEC3AF01A0E18
:105040000001D16FD26BD36B4BEC3AF0080E00012C
:10505000D16FD26B030ED36F4BEC3AF0090E000107
:10506000D16FD26B030ED36F4BEC3AF00A0E0001F6
:10507000D16FD26B020ED36F4BEC3AF00B0E0001E6
:10508000D16FD26BD36B4BEC3AF00C0E0001D16FA9
:10509000D26BD36B4BEC3AF00D0E0001D16FD26B9B
:1050A000030ED36F4BEC3AF00001B00E8D6F040E7F
:1050B0008E6F00EE91F0EE6AEE6A00EE93F0EE6A0B
:1050C000EE6A00EEADF0EE6AEE6AEE6AEE6A100E7F
:1050D0000001CC6FCD6B8D0ECE6F000ECF6F020E28
:1050E000D06F62D8120E0001CC6FCD6B910ECE6FD7
:1050F000000ECF6F020ED06F57D8140E0001CC6F88
:10510000CD6B930ECE6F000ECF6F020ED06F4CD8CA
:10511000160E0001CC6FCD6BAD0ECE6F000ECF6FB3
:10512000040ED06F41D8000E6ED800EE6DF0EE6A1E
:10513000EE6A00EE77F0EE6AEE6A00EE73F0EE6A69
:10514000EE6A300E0001CC6FCD6B6D0ECE6F000E8F
:10515000CF6F020ED06F28D8320E0001CC6FCD6B0E
:10516000770ECE6F000ECF6F020ED06F1DD8340EAB
:105170000001CC6FCD6B730ECE6F000ECF6F020EA1
:10518000D06F12D8360E0001D16FD26BD36B4BECBF
:105190003AF07F0E0001D16FD26B5A0ED36F4BECF9
:1051A0003AF0F28E1200CC000001D007D029D8B41A
:1051B00012000400CCC0D1F0CDC0D2F0CC4BCD2B2E
:1051C000CEC0E9FFCFC0EAFFEF50D36FCE4BCF2B5D
:1051D0004BEC3AF0E9D7C5000001C907C929D8B49A
:1051E00012000400C551CA6FC651CB6FC54BC62B08
:1051F000CAEC3AF0C7C0E9FFC8C0EAFFEF6E000191
:10520000C74BC82BE9D70001BB6BBA6BBE6FB10EA1
:10521000BC6F000EBD6FF29EB96B1FD00001BE5176
:10522000BCC0E9FFBDC0EAFF05E0EF6ABCC0E9FF12
:10523000BDC0EAFFEF500001BA27BB51D16FD26B5E
:10524000BB2BBCC0E9FFBDC0EAFFEF50D36FBC4B26
:10525000BD2B4BEC3AF00001B92B060EB965DED739
:105260000001BB51D16FD26BBB2BBA515508D36F24
:105270004BEC3AF0F28E12000001BB6BBA6BB10E30
:10528000BC6F000EBD6FF29EB96B16D00001BB2B38
:10529000BB05CA6FCB6BCAEC3AF0BCC0E9FFBDC01E
:1052A000EAFFEF6EBCC0E9FFBDC0EAFFEF500001AE
:1052B000BA27BC4BBD2BB92B070EB965E7D7F28EC9
:1052C0000001BA51550A000ED8B4010E12001ECFCB
:1052D000E8FFA50AD8B41200A50EE8CF1EFF370ECE
:1052E0000001D16FD26B1ECFD3F04BEF3AF010AE6E
:1052F00006D03B0E0001D16FD26BAA0E05D03B0E3B
:105300000001D16FD26B550ED36F4BEF3AF0050E03
:10531000E8CF29FF129E0001000ECE6F100ECF6F56
:1053200066EC3AF0F29E100E0001CC6FCD6B8D0E44
:10533000CE6F000ECF6F020ED06F36DF120E00015F
:10534000CC6FCD6B910ECE6F000ECF6F020ED06F73
:105350002BDF140E0001CC6FCD6B930ECE6F000EC1
:10536000CF6F020ED06F20DF160E0001CC6FCD6B19
:10537000AD0ECE6F000ECF6F040ED06F15DF000E96
:1053800042DFF28E12007F0E0001CA6FCB6BCAECB7
:105390003AF05A0AD8A442DEF29E0E0E0001CA6FFD
:1053A000CB6BCAEC3AF0E8CF2FFF0F0E0001CA6FAB
:1053B000CB6BCAEC3AF0E8CF2EFF1A0E0001CA6F91
:1053C000CB6BCAEC3AF0E8CF32FF080E0001CA6F8F
:1053D000CB6BCAEC3AF0E8CF31FF090E0001CA6F7F
:1053E000CB6BCAEC3AF0E8CF34FF0A0E0001CA6F6B
:1053F000CB6BCAEC3AF0E8CF35FF0D0E0001CA6F57
:10540000CB6BCAEC3AF0E8CF36FF0C0E0001CA6F46
:10541000CB6BCAEC3AF0E8CF30FF370E0001CA6F11
:10542000CB6BCAEC3AF0E8CF1EFF100E0001C56F3F
:10543000C66B8D0EC76F000EC86F020EC96FCCDE33
:10544000120E0001C56FC66B910EC76F000EC86FBC
:10545000020EC96FC1DE140E0001C56FC66B930E3C
:10546000C76F000EC86F020EC96FB6DE160E0001C0
:10547000C56FC66BAD0EC76F000EC86F040EC96F47
:10548000ABDEFCEC33F0E8CF25FFC6EC2BF025CFEC
:10549000E8FF0F01301911E025CF30FFFCEC33F0AD
:1054A000006E00AA02D00F0136850C0E0001D16FEC
:1054B000D26B30CFD3F04BEC3AF030CFE8FF070B94
:1054C000E8CF33FF33CF00F0016A00509D0FF66E36
:1054D0000150F76E100EF7220800F5CF23FFCCDE47
:1054E000000902E1010E8FDE0F0123A10FD0FCECB9
:1054F00033F0006E00BA0AD03B0E0001CA6FCB6BCE
:10550000CAEC3AF0550A02E1109E01D0108EF28EDC
:105510001200CD90220ECE6EFC0ECF6E300ECD6EF0
:105520009D80CD801200F29E040080681F0E926E56
:10553000816E936EF80E826E800E946E836A956A09
:10554000846A800E966E856AE70E976E866A986802
:10555000070EB46EB56A9F6AA26AA56A12000001BE
:10556000F56FACA2FED7F5C0ADFF120000010C0E26
:10557000636F0F0E646F00010C0E656F0F0E666F88
:10558000190EAF6E240EAC6E900EAB6E9D989D8A78
:1055900012000001C96FC40ECE6F100ECF6FC9C0CC
:1055A00000F0016A00C0CAF001C0CBF0CA0EE8CF1B
:1055B000CCF0000EE8CFCDF066EC3AF0F29E0001A0
:1055C000C95135EC37F08390839283948396839806
:1055D000849084928494849603000400FED7070E7E
:1055E000E8CF29FFE70E976E85B21200060E69EC30
:1055F0002FF0850ECED797DF8CDFB8DF80EC25F05B
:10560000D08EF28CF28E000E35EC37F00001B00E29
:105610008D6F040E8E6F0001200E9F6F1C0EA06F09
:10562000118E00011E0E8F6F906B0F01216B080E03
:10563000E8CF3AFFE8CF39FF04000F012853D8A480
:105640001200FBD7300E0001C56FC66B6D0EC76F21
:10565000000EC86F020EC96FECEC28F0320E00018C
:10566000C56FC66B770EC76F000EC86F020EC96F8D
:10567000ECEC28F0340E0001C56FC66B730EC76FDB
:10568000000EC86F020EC96FECEC28F011B011D0FB
:105690000001732B000E7423340E0001CC6FCD6B10
:1056A000730ECE6F000ECF6F020ED06FD4EC28F0C9
:1056B0002CD011B218D00001772B000E7823320EB7
:1056C0000001CC6FCD6B770ECE6F000ECF6F020E48
:1056D000D06FD4EC28F0360E0001D16FD26B2ACFF8
:1056E000D3F04BEC3AF010B610D000016D2B000E49
:1056F0006E23300E0001CC6FCD6B6D0ECE6F000EA1
:10570000CF6F020ED06FD4EC28F0360E0001CA6FB6
:10571000CB6BCAEC3AF0E8CF29FFD080D0820001F1
:10572000EE0ECE6F100ECF6F29CFBFF0C06B73C0DF
:10573000BDF074C0BEF06DC0BBF06EC0BCF077C0F1
:10574000B9F078C0BAF0B90EE8CFCCF0000EE8CFCF
:10575000CDF066EC3AF0FCEC33F0006E00BA1200CB
:105760000001CC0ECE6F100ECF6F66EC3AF0000148
:1057700010AE04D0E90EC16F100E03D0E30EC16F5E
:10578000100EC26F24EF3BF04DEF2CF0FCEC33F029
:10579000300B300AD8A412000F0136851200FCEC41
:1057A00033F0006E00AA10AE19D085A412006A0E64
:1057B00035EC37F0119C0001E00EB96F010EBA6FA5
:1057C000A3EC24F00F0123A112006B0E35EC37F08F
:1057D000B40E0001B96FBA6B0FEF25F010BE03D005
:1057E0000F01368501D0D2DF0F0136B51DEF24F051
:1057F000128C1200000164C0E8FF661903E163C067
:10580000E8FF6519D8B4120065C0E9FF66C0EAFF79
:10581000EF500001BB6F0001652B000E66230F0ED9
:10582000665D140ED8B4655D04E30C0E656F0F0E53
:10583000666F0001BB512A0A02E1108A120010AA09
:105840001200109A0001BB51430A04E0BB51630AE5
:10585000D8A4120020EF33F00F0123A11200FCECBA
:1058600033F0006E00BA120085B00CD010BE1200EA
:10587000170E0F013C651200108E77EC29F00F0116
:10588000226B12000F0E0001C16FC26BE4EC3AF004
:1058900085A012000F013C6B120017D832D800010E
:1058A000650ECE6F100ECF6F17CFC0F0C16B1BCF40
:1058B000BEF0BF6B1ACFBCF0BD6BBC0EE8CFCCF016
:1058C000000EE8CFCDF066EF3AF02ECF00F0016A7F
:1058D0000050590FF66E0150F76E100EF7220800B7
:1058E000F5CF1AFF2FCF00F0016A00505D0FF66E62
:1058F0000150F76E100EF7220800F550E8CF1BFF9D
:1059000012000F0136B111AA04D0820EE8CF17FFA2
:105910001200FCEC33F0006E00AE04D0CA0EE8CFEB
:1059200017FF120032CF00F0016A0050610FF66ECF
:105930000150F76E100EF7220800F550E8CF17FF60
:105940001200040EE8CF29FFC0DF0F0136A317D0E5
:10595000020E0F01336101D008D033CFE8FF030AF4
:1059600004E033CFE8FF070A0AE100019F51A011CC
:1059700006E1320EE8CF1AFF280EE8CF1BFF0F0119
:1059800036B111AA02D0119612003DEC26F000C0EB
:105990002BFF2BCFE8FF0F011A6102D011861200F6
:1059A0001BCFE8FF0F012B61120011961200060EAB
:1059B000E8CF29FF119E11A602D0010E01D0000EE2
:1059C000006E11A802D0010E01D0000E001A27E0CF
:1059D0000001A46BA36B11A613D0010EA26F2C0EB5
:1059E000A16F0001A86BA76B0E0EA66F100EA56F1E
:1059F0001188848284803DEC26F000C020FF0FD007
:105A0000040EA26FB00EA16F00EEA5F0EE6AEE6A72
:105A1000EE6AEE6A1198849284900F011C6B0F015C
:105A20001F53D8B412001F6B0001A46BA36B040EAC
:105A3000A26FB00EA16F1198849284903DEC26F075
:105A400000C02BFF20CFE8FF0F012B5D12E3320EC9
:105A50002B650FD0FCEC33F0006E00B612000F0186
:105A60001C2B020E1C651200010E69EC2FF0450E76
:105A70006CD00F011C6B1200030EE8CF29FF0F0141
:105A800023A15ED03EDFD2EC26F000C02CFF1ECF5B
:105A9000E8FFA50A13E100EE6BF0EE6AEE6A640E11
:105AA0000F012C6112005A0EE8CF1EFF370E0001C5
:105AB000D16FD26B1ECFD3F04BEF3AF017CFE8FF88
:105AC0000F012C5D05E300EE6BF0EE6AEE6A12004A
:105AD0002CCFE8FF17CF00F0005C0001B96FBA6B64
:105AE000D8A0BA07000EBA5D650ED8B4B95D03E35D
:105AF000640EB96FBA6BFA0E026E036AB9C000F099
:105B0000BAC001F0BAEC3AF004C000F005C001F0F0
:105B1000140E026E036A44EC39F004C0B9F005C0FB
:105B2000BAF00001000EBA5DFB0ED8B4B95D03E314
:105B3000FA0EB96FBA6BB9C06BF0BAC06CF0120054
:105B400000EE6BF0EE6AEE6A12000001B96F900E83
:105B5000CE6F100ECF6FB9C000F0016A00C0BAF06E
:105B600001C0BBF0BA0EE8CFCCF0000EE8CFCDF00C
:105B700066EC3AF0F29E0001B95135EC37F08390B3
:105B80008392839483968398849084928494849659
:105B90000001F40EBE6F010EBF6F8CEC38F00001F7
:105BA000310EC16F120EC26FE4EC3AF00400F0D770
:105BB0000C0EE8CF29FF0001980ECE6F100ECF6FAC
:105BC00066EC3AF0129600016707000E685B1E0E45
:105BD000696F6A6BD2EC26F000C02CFF2CCFE8FF77
:105BE0000F011D6116D01DCFE8FF2CCF00F0016A18
:105BF000005E000E015A0150800A800F140ED8B4C6
:105C0000005C07E367EC29F0030E69EC2FF0250E2A
:105C10009CDF2CCF1DFF12000001BD6F40D00001A2
:105C2000860ECE6F120ECF6F66EC3AF049D00001AF
:105C3000C00ECE6F120ECF6F66EC3AF041D000016D
:105C4000580ECE6F120ECF6F66EC3AF039D00001CD
:105C5000A00ECE6F120ECF6F66EC3AF031D000017D
:105C60003C0ECE6F120ECF6F66EC3AF029D00001D9
:105C7000200ECE6F120ECF6F66EC3AF021D00001ED
:105C8000E00ECE6F120ECF6F66EC3AF019D0000125
:105C9000FF0ECE6F110ECF6F66EC3AF011D00001FF
:105CA000BD51BDE0010AC3E0030AC9E0010ACFE02B
:105CB000070AD5E0010ADBE0030AE1E0010AE7E0B8
:105CC0000001360EC16F130EE0D00001C26FC25149
:105CD000050D0B0EF324C06F010EF420C16FF29E70
:105CE000C051CA6FC151CB6FC04BC12BCAEC3AF047
:105CF0000001BD6F180EBD6114D0EE0ECE6F120EF6
:105D0000CF6FBDC000F0016A00C0C3F001C0C4F095
:105D1000C30EE8CFCCF0000EE8CFCDF066EC3AF041
:105D200007D00001F40ECE6F120ECF6F66EC3AF082
:105D30000001C051CA6FC151CB6FC04BC12BCAEC1F
:105D40003AF00001BD6F3C0EBD6114D0EE0ECE6F77
:105D5000120ECF6FBDC000F0016A00C0C3F001C0D9
:105D6000C4F0C30EE8CFCCF0000EE8CFCDF066EC67
:105D70003AF007D00001F40ECE6F120ECF6F66EC32
:105D80003AF00001C051CA6FC151CB6FC04BC12B5B
:105D9000CAEC3AF00001BD6F3C0EBD6114D0100E8C
:105DA000CE6F130ECF6FBDC000F0016A00C0C3F00C
:105DB00001C0C4F0C30EE8CFCCF0000EE8CFCDF0A8
:105DC00066EC3AF007D00001170ECE6F130ECF6FBE
:105DD00066EC3AF0C0C0C5F0C1C0C6F00001BE0E0E
:105DE000C76F000EC86F020EC96FECEC28F00001FF
:105DF000BE29D8B4BF2911E00A0ECE6F130ECF6FA3
:105E0000BEC0C3F0BFC0C4F0C30EE8CFCCF0000EDC
:105E1000E8CFCDF066EC3AF007D000011C0ECE6F53
:105E2000130ECF6F66EC3AF0F28E1200F29E000174
:105E3000BC6F010FCA6FCB6B010ECB23CAEC3AF0DB
:105E40000001BB6FF28E080EBB611200BC513DDF3A
:105E50000001BB51E1D60001230EC16F130EC26FCA
:105E600024EC3BF0F29E0001CA6B010ECB6FCAEC32
:105E70003AF0E8CF42FFF28E090E0F01426508D0DA
:105E8000426B0001F80EC16F120EC26F24EF3BF09F
:105E900042CFBAF00001BA5102E0BA0703D0090EAE
:105EA0000001BA6F0001B96B090EB96501D012008B
:105EB0000001BA51BBDF0001BA5102E0BA0703D0BA
:105EC000090E0001BA6F0001B92B090EB965F0D7B0
:105ED0001200F29E0001CB6F42CF00F00028D16F7C
:105EE000D26B010ED223CB51D36F4BEC3AF042CFA1
:105EF000E8FF050D0B0EF3240001C96F010EF4201D
:105F0000CA6FC9C0D1F0CAC0D2F0C94BCA2BB5C044
:105F1000D3F04BEC3AF0C9C0D1F0CAC0D2F00001C6
:105F2000C94BCA2BB4C0D3F04BEC3AF0C9C0D1F086
:105F3000CAC0D2F00001C94BCA2BB3C0D3F04BEC9E
:105F40003AF0C9C0CCF0CAC0CDF00001B60ECE6F99
:105F5000000ECF6F020ED06FD4EC28F00F01422B51
:105F6000090E426501D0426B0001D16B010ED26F68
:105F700042CFD3F04BEC3AF0F28E120000013E0E0D
:105F8000CE6F110ECF6FB3C0C9F0CA6BB4C0C7F0EB
:105F9000C86BB5C0C5F0C66BC50EE8CFCCF0000E1F
:105FA000E8CFCDF066EF3AF00F0123A123D0000136
:105FB000952B000E96239651800A800FFB0ED8B4C5
:105FC000955D03E3010E956F966B95C002F096C048
:105FD00003F06BC000F06CC001F00150800A046E49
:105FE0000350800A045C02E10250005C8494D8B043
:105FF000848401D084940F013F53D8B412003FA190
:1060000024D00F013F91138011AC1FD00001612BF0
:10601000000E6223040E625DB10ED8B4615DD8B08B
:10602000128200018E51800A800F010ED8B48D5D5E
:1060300004E38D07000E8E5B08D00001912B000E4B
:106040009223B00E8D6F040E8E6F0F013FA385D08B
:106050000F013F93138800019E51800A800F010EAB
:10606000D8B49D5D03E39D07000E9E5B00EEACF08F
:10607000ED50800A800F08E1000EED5C05E1000E96
:10608000ED5C02E1010EED5C06E30001A907000EE4
:10609000AA5BAB5BAC5B00016A51800A800F010E0A
:1060A000D8B4695D07E36907FF0E6A2369516A1175
:1060B000D8B412860F013A5301E03A070F01395361
:1060C00001E039070F013E5301E03E0700019F51F7
:1060D000A01103E09F07FF0EA023000199519A1120
:1060E0000AE09907FF0E9A2399519A1104E18496C8
:1060F0000F0E976F986B00EEA4F0ED50800A800FA2
:1061000008E1000EED5C05E1000EED5C02E1010E20
:10611000ED5C07E30001A107000EA25BA35BA45B9B
:1061200001D0118E11A819D000EEA8F0ED50800A10
:10613000800F08E1000EED5C05E1000EED5C02E170
:10614000010EED5C07E30001A507000EA65BA75B4F
:10615000A85B03D0010EE8CF1FFF0F013FA55BD066
:106160000F013F95128A128800018F07FF0E9023BE
:106170008F51901104E11E0E8F6F906B128E0001F3
:106180009751981117E09707FF0E98239751981190
:1061900011E13C0E996F000E9A6B0F0136A102D0EF
:1061A00011BA08D00F0136A304D000019F51A011ED
:1061B000D8A484860F0136A12ED011AA15D013B40D
:1061C00029D000EE8BF0EE6AEE6A00019B2B000EE8
:1061D0009C239C51800A800F060ED8B49B5D1AE365
:1061E000119A00EE9BF014D013A414D000EE9BF093
:1061F000EE6AEE6A00018B2B000E8C238C51800A14
:10620000800F060ED8B48B5D05E3118A00EE8BF08B
:10621000EE6AEE6A12840F013FA70FD00F013F977D
:106220000001932B000E9423AD2BAE23AF23B0239C
:1062300010BE03D00F01010E3C2B0F013FB93F9957
:1062400012000001B12BB1C0E8FF190AD8A4120056
:10625000B16B0F013F810001B22BB2C0E8FF0A0A07
:10626000D8A41200B26B0F013F830001B32BB3C05F
:10627000E8FF3C0AD8A41200B36B0F013F85000170
:10628000B42BB4C0E8FF3C0AD8A41200B46B0F01D1
:106290003F870001B52BB5C0E8FF180AD8A412004B
:1062A000B56B0F013F890001B62B000EB72312001A
:1062B000C8DF7AD685AC11D00F013E5307E13C0E02
:1062C000E8CF3EFF010EE8CF21FF12000F01212B86
:1062D000140E21651200128012003C0EE8CF3EFF22
:1062E000010EE8CF21FF1200956A83909B0E0001FA
:1062F000C16FC26BE4EC3AF08390839283948396EF
:1063000083981392119C00EE61F0EE6AEE6A12001F
:106310000F0123A3120083829B0E0001C16FC26B89
:10632000E4EC3AF083800F01138223A51392118CC1
:10633000C1D783849B0E0001C16FC26BE4EC3AF0BD
:1063400083800F01138223A91392118CB3D70F01FD
:1063500023AB120023A114D0FCEC33F0006E00BA82
:106360000FD00F0185B002D0226B0AD0222B040E71
:106370000F01226505D010AE03D0109E77EC29F0F6
:1063800083869B0E0001C16FC26BE4EC3AF0838000
:106390000F01138223AD1392118C8CD7020EE8CF1C
:1063A00029FF12B08FD012B26DD0E9EC33F000505B
:1063B0000F0BE8CF26FF26CFE8FF0F01271951E08A
:1063C00093DF26CF27FF119A12840F01265302E193
:1063D000129047D00F01355309E011D0AADF41D008
:1063E000B6DF3FD095DF3DD07FDF3BD026CFE8FF43
:1063F000010AF6E0030AF2E0060AF4E0F5D735CF29
:1064000000F0000409E011D094DF2BD0A0DF29D0E8
:106410007FDF27D069DF25D026CFE8FF090AF6E025
:10642000030AF2E0060AF4E0F5D735CFE8FF020AE6
:106430000DE017D07EDF15D00F0123BF88DF11D00C
:106440000F0123AF84DF0DD063DF0BD026CFE8FF31
:10645000010AF6E0030AEEE0060AF6E00D0AECE0B7
:1064600043DF13A2120000013C0E996F9A6B00EEFD
:1064700097F0EE6AEE6A84860001200E9F6F1C0E74
:10648000A06F1200129212802FDF0001030E9D6F89
:106490009E6B00019E51800A800F010ED8B49D5D55
:1064A000D8A012000400E9EC33F00150800A800FFC
:1064B000010ED8B4005CEDE2129000EE9DF0EE6AA1
:1064C000EE6AE7D7010E0001B96F030EBA6F070E2F
:1064D00069EC2FF0129008DF640E0001BE6FBF6BF5
:1064E0008CEC38F00001010E9D6F9E6BE9EC33F0EF
:1064F0000050800A011027E0040000019D519E1108
:10650000F5E1010E9D6F9E6B0001BA2F08D0640E5D
:10651000BE6FBF6B8CEC38F0030E0001BA6F000148
:10652000B92FE4D70A0EB96F160E35EC37F000011B
:10653000080EC16F030EC26FE4EC3AF01A0E35EC90
:1065400037F0D4D70400E9EC33F00050800A011092
:10655000F9E00F01216B120041CFC2F040CFE8FFFC
:106560000001C227C21D1200C1000001C251800AF1
:10657000810FF70ED8B4C15D08E3C251800A800FC5
:106580000A0ED8B4C15D01E2010C000CE5DFC16F59
:10659000F29E380ED16FD26B41CFD3F04BEC3AF074
:1065A000390E0001D16FD26B40CFD3F04BEC3AF0F3
:1065B0003A0E0001D16FD26BC151D36F4BEC3AF060
:1065C000F28E1200380E0001CA6FCB6BCAEC3AF0A3
:1065D000E8CF41FF390E0001CA6FCB6BCAEC3AF02D
:1065E000E8CF40FFB9DFB96F3A0ECA6FCB6BCAEC88
:1065F0003AF00001BA6FBA51B9631DD041CFC1F072
:10660000C26BC1BFC207B1DF006E00C002F0036AF7
:106610000350021010E040CFE8FF0001C16FC26BD1
:10662000C1BFC207A2DF006E00C002F0036A0350C0
:10663000021001E0010C0F01416B0F01406B000CD7
:10664000080EE8CF3AFF0001DB0EC16F110EC26FDA
:1066500024EC3BF00F01406B0F01416B0001310E48
:10666000C16F120EC26FE4EC3AF06DEC27F03DEC16
:1066700026F000C06FF001C070F0D2EC26F000C030
:1066800071F001C072F0210E006E016A6FC0E8FF68
:10669000005C0001BD6F70C0E8FF0158BE6F730E53
:1066A000CE6F110ECF6FBDC0BFF0BEC0C0F0BF0E29
:1066B000E8CFCCF0000EE8CFCDF066EC3AF0BDC0EC
:1066C000C1F0BEC0C2F051DF006E00C002F0036A2C
:1066D000035002100DE0BDC041FF0001D20EC16F9A
:1066E000110EC26F24EC3BF0010E0001BC6F09D00B
:1066F0000001950EC16F110EC26F24EC3BF000013A
:10670000BC6BC30E006E016A71C0E8FF005C000143
:10671000BD6F72C0E8FF0158BE6F510ECE6F110EF3
:10672000CF6FBDC0BFF0BEC0C0F0BF0EE8CFCCF091
:10673000000EE8CFCDF066EC3AF0BDC0C1F0BEC0AF
:10674000C2F013DF006E00C002F0036A03500210B3
:106750000AE0BDC040FF0001D20EC16F110EC26F32
:1067600024EC3BF009D00001950EC16F110EC26FF1
:1067700024EC3BF00001BC6B0001BC5108E006DFDB
:106780000001B00EC16F110EC26F24EC3BF06DEC36
:1067900027F0D2EC26F000C071F001C072F01200B8
:1067A00011DF0009D8A412008F0E35EC37F0040079
:1067B000080EE8CF3AFFFAEC2BF0E9EC33F0015089
:1067C000800A800F010ED8B4005CF1E30F0E35EFA4
:1067D00037F01F0E936E800E966E81501F0B0001D6
:1067E000BC6F8450800BBC131384BCA91394BC9958
:1067F000BCC000F0016A120086501F0B0001C56F7B
:106800008550E00BC513C51D12000001B96BBA6BB2
:1068100000010A0E9D6F000E9E6F13B002D004009F
:10682000FCD71390D6DF00C026FF26CFE8FF0F016C
:10683000271903E00001B96BBA6B26CF27FF94D06C
:10684000B90EE96E000EEA6EEE2A000EED22EE524F
:10685000ED50800A800F330ED8B4EF5C01E298D07F
:1068600028EC21F095D0B90EE96E000EEA6EEE2A02
:10687000000EED22EE52ED50800A800F330ED8B498
:10688000EF5C01E285D00CEC22F082D0B90EE96E0B
:10689000000EEA6EEE2A000EED22EE52ED50800A56
:1068A000800F330ED8B4EF5C73E36FEC22F070D03E
:1068B000B90EE96E000EEA6EEE2A000EED22EE52DF
:1068C000ED50800A800F330ED8B4EF5C61E3D2EC58
:1068D00022F05ED0B90EE96E000EEA6EEE2A000ECE
:1068E000ED22EE52ED50800A800F330ED8B4EF5CEB
:1068F0004FE3F3EC20F04CD0B90EE96E000EEA6ED7
:10690000EE2A000EED22EE52ED50800A800F330E7B
:10691000D8B4EF5C3DE335EC23F03AD0B90EE96E24
:10692000000EEA6EEE2A000EED22EE52ED50800AC5
:10693000800F330ED8B4EF5C2BE3ADEC23F028D0FE
:10694000B90EE96E000EEA6EEE2A000EED22EE524E
:10695000ED50800A800F150ED8B4EF5C19E300EEFD
:106960009DF0EE6AEE6A14D026CFE8FF080AE8E050
:10697000880AB0E0010A01E176D7030A87E0060A37
:1069800097E00C0AB9E0010AC9E0030A01E158D70F
:10699000FAEC2BF000019E51800A800F010ED8B452
:1069A0009D5DD8A0120039D70B0EE8CF29FF1388C0
:1069B00078EC27F00001050E9D6F9E6B01D004005E
:1069C00008DF0050800A011008E100019E51800A92
:1069D000800F010ED8B49D5DF2E200019D519E1121
:1069E000D8B4F3EC20F012001100E8CF5DFFE9CF3E
:1069F0005CFFEACF5BFFE1CF5AFFE2CF59FFD9CF6F
:106A000058FFDACF57FF0EC056FF0DC055FF0CC020
:106A100054FF0BC053FF0AC052FF09C051FF08C00A
:106A200050FF07C04FFF06C04EFF05C04DFF04C01A
:106A30004CFF03C04BFF02C04AFF01C049FF00C02A
